:020000040000fa
:080000000002040000000000f2
:020000040000fa
:10000800d2020000d2020000d2020000d202000098
:10001800d2020000d2020000d2020000d202000088
:10002800d2020000d2020000d2020000d28d0000ed
:10003800d2020000d2020000d2020000188700009d
:10004800d2020000d2020000d20200000a89000099
:10005800d2020000d2020000d2020000d202000048
:10006800d2020000d2020000d2020000d202000038
:10007800d2020000d2020000d2020000d202000028
:10008800d2020000d2020000d2020000d202000018
:020000040000fa
:100400006f3c22000eff22000e0188000000000059
:10041000000020000000e000020032000001200087
:10042000200288000c000700a0fc2800010020002a
:100430000f000700000020000000e0000200320072
:1004400000000200000000009e8102000000000089
:100450000040da000000fe0020da20000000e0008a
:1004600002003200002020009001880000000600f9
:10047000a1028800800078000000eb001a0037001d
:10048000e280400054a0b4009101ba00e280400034
:1004900054a0b4009102ba00e280400054a0b4001d
:1004a0000002eb00472bde00f507b200a601880032
:1004b000602ce10008003a000049eb000201e8006e
:1004c000020039003420ec0002f0a0008301e900b2
:1004d000f9ff3e00040037006128e100010032000e
:1004e0000082eb00040007001101ba000200e000e6
:1004f000e3ff3a000000060004d0a300e20f490029
:100500001c003900810278003549ba000201e80078
:10051000020039003420ec0002f0a0008301e90061
:100520000f0032002549ba000201e800020039003c
:100530003420ec0002f0a0008301e9000800320042
:100540000400e0000600320015c9ba000201e8000c
:10055000020039003420ec0002f0a0008301e90021
:100560008180e80054a0b4000300e000e2ff3a00fc
:10057000000006009102ba00055978008301e900e5
:10058000f7ff3200c82ade00055978008301e90030
:10059000f3ff32000400e000f1ff320011d9ba008d
:1005a000eeff37000040da000000fe000a00fa000b
:1005b000e20f500022003e00541d8100e10f520066
:1005c0000600320087232000462320002423200039
:1005d00005232000e08f530004003a00872220000a
:1005e00046222000242220000522200000002800ae
:1005f0001500600003003a00800b78000700280017
:10060000958a7300054020009482620001003a0040
:1006100014a0a0008202780006003700940378003e
:100620000710b200fdff3200b103fb00070b78009a
:100630008502e900e08f5200f8ff3a000800370019
:10064000340020001007980032079800040f78004b
:10065000210798000e007800760607003e01900002
:10066000020078000080fa000000060003f0a200fb
:10067000889fbe008a9fbe008c1f78001d01070066
:10068000240133006450e1004f0032006420e10097
:100690005200320003826c0007003b000905d000c5
:1006a0000306d000820f54000c065d0002003900e2
:1006b0000200320089017800030678008582550027
:1006c00004003d000003fd008103fd008502ea00f7
:1006d0008b854200840f720002003b006000100016
:1006e000e08018006011b8000005eb007a28e100f6
:1006f0000a00390006007800c75ddd00f707b20088
:10070000878075002d003700828171000a01780012
:10071000610560008180d1000080d3008502e9007e
:10072000f9ff3b00060440008784480002003b00bc
:1007300060041400e0841c000988a3000700320054
:100740008a81710082817100610164008904d10095
:100750000884d3008b05e800170037000978a30050
:1007600013003a000b00e000130034008b05e90091
:100770000804440089844c000a4474000978a300ea
:100780000d003a000b00e000070034008b05e90083
:100790000804440089844c0001003a000b0020004a
:1007a0000978a300f7ff32000001eb0002003700d8
:1007b000828171000a017800930007000cf0a70005
:1007c00001f0a000dc0037006420e10002003a00e4
:1007d000838f6c00dc0033000801be000200be0005
:1007e000d5003700889fbe008a9fbe008c1f78000e
:1007f000c0000700c700330003866c006450e100ae
:100800002e0032006420e100330032006150e1002c
:100810002f0032006120e100310032008585550053
:10082000eb07b00009002000080420000500370095
:100830000804440089844c000a0031000603430088
:1008400087834b000001530081815b00f8ff330078
:100850000203be000800a0000804440089844c0084
:10086000f6ff3900c639dd00830173000100320054
:10087000130020008904d1000884d3000998a30044
:10088000050032000800a7000300a0008904d10081
:100890000884d3008b05e8008904d1000884d300c4
:1008a0000001eb000281d2005700070001f0a10017
:1008b0000cf0a70001f0a0009f0037006420e100c9
:1008c000a10032000801be000200be00f7ff3700a1
:1008d0006120e1009c0032006000b800f3ff3700a7
:1008e0000000200001f82700f0ff3700140020006e
:1008f00040013700f4ff2f003e0137000001be0029
:10090000670007000470a70003f0a1006509b100ab
:10091000160032000d0035006828e10006003500a1
:10092000f0ff2f00f1ff27000300e00013003b0061
:100930000100280000000500000040008180480000
:100940008502e900fcff3a0008003700f88f4200fa
:1009500002003c008000eb00000005008100d10097
:100960000080d3008502e800fcff3a000300e000ad
:1009700002003b0060001000e0801800000006004c
:100980000001be00460007000470a70003f0a100ac
:1009900003f8a30013003a006509b100100032000b
:1009a000090035006928e100020035000100280037
:1009b0000000050000004000818048008502e90039
:1009c000fcff3a0000000600f88f420005003500e9
:1009d0008100d1000080d3008502e800fcff3a00ce
:1009e000000006008000eb00000005004f89de00db
:1009f000820178001a0137006011b8002801370021
:100a000004002000fb0037008100200061805500b9
:100a10000b003d000b00200061fe2f000100e100f3
:100a20001d00340082817100610164008904d100dd
:100a30000884d3000000e800faff3a0071002000ab
:100a400061006400030070000200600009003200d1
:100a500061044400e0844c000988a50005003200d0
:100a60008b05e8006808e10002003a008904d10023
:100a70000884d300f20f20000258e10005003d0079
:100a8000c75ddd00f907b2008980750008007800b5
:100a9000000006000bf827008b007800000005001e
:100aa000c70ade00f107b200f50fb20008003200fd
:100ab000e1cf4200020032000170a00024000500d6
:100ac000810f700001003200040805004400050099
:100ad000810f700002003a00140005008502e90051
:100ae0000000400081c04800fcff3b000170a000f6
:100af000240005000004be00e9ff07000003be005b
:100b00000405be000200be00e5ff0700844f75002b
:100b1000000006000200be006450e100050036003f
:100b20006420e100020036000968a30001003a00d9
:100b30000800be000160a0004f0678004f05be000f
:100b40004f04be0000000600f0ff2f00f1ff270059
:100b5000f9ff3700889fbe008a9fbe008c9fbe00b1
:100b600097000700850478000005be006420e100be
:100b700049003e006220e100030032000900350018
:100b80000bf8a300440032000bf8a3000800320069
:100b90001002200000808800f0ff2f00f1ff2700e6
:100ba0003d00370001f82f00000020003a00370018
:100bb0003d000700adfe07000006be000a00be00b3
:100bc000324f200053f323004aff07000600340091
:100bd0000c00be0034000700a4fe07000006be00a3
:100be0000a00be00020037008904e9000c00be00c4
:100bf0002d0007002e0007002b0007009cfe0700b9
:100c00000001be000c00be00f6fe07000005be009d
:100c10000001be00260007000006be00a2f323006c
:100c2000430d2c0092fe0700809fbe000c00be000a
:100c3000d2e32700d3f02b001d0007004f01be00b8
:100c4000e8fe07000006be000a01be00180007000b
:100c50000a01be0086fe07000006be006148b9001a
:100c600062ff07000005be0032082800e3952b0054
:100c70000f0007000c01be007dfe07000006be004d
:100c80000a00be000200280013f32300080007003a
:100c90000c01be0076fe07004f06be004f05be00e9
:100ca0004f04be000000060003f023000200050010
:100cb000889fbe008a9fbe008c1f78008dff0700b2
:100cc00094ff330003866c006450e100240032007e
:100cd0006420e100270032006150e1002200320070
:100ce0006120e100210032008b854200eb07b1005a
:100cf0000134b800003ab8000804420089844a0070
:100d0000013ab8000030b8008880400009014a006c
:100d100004003300000040008180480002014900c7
:100d20008b05e900c909dd00830170000100320074
:100d300013002000c814de004814dd004709de005f
:100d40001200b200c808de00088470002eff070001
:100d500001f0a1000cf0a70001f0a00076ff370021
:100d60006120e10078ff32000801be000200be00f1
:100d7000f7ff37006150e100fcff3a0072ff3700d7
:100d80006022b800060220000000d0008180d2005e
:100d90000482d2008582d2000000a000020252002c
:100da00083825a00030031000202420083824a001b
:100db0000000a1000603e900f3ff3a00000006006e
:100dc0000003be0036ff07006220e100020032008f
:100dd0000600be0005000500e507b100f107b200fe
:100de00004f023008480700007f0a70001f0a00049
:100df00024000500889fbe008a9fbe00841f7800e3
:100e00003cff07004f00780011003300f0ff2f0077
:100e1000838f6c0006003b00040565000a00a700f4
:100e20000800370009f0a600100020000800370075
:100e3000820f5400838f5c000300390010002000f3
:100e400001003e000000200009f0a7000000ea00b9
:100e50004f05be004f04be000000e0000000060089
:100e6000881f7800030478000300e00007003d00bd
:100e700060001000e080180060011900e081190096
:100e800002003b0001f02d000300370004000700c2
:100e900008f0a70001f0a0004f0478000000060051
:100ea000889fbe008a9fbe0000827000040271000d
:100eb00004827100260032000004be000200be0061
:100ec0006011b8006b092000950220000182cf005c
:100ed0000a0039000541b1000082cf000700390047
:100ee0000541b1000982cf00040039000541b1007d
:100ef0000882cf00010039000541b10005425200cf
:100f0000120032000a003b0082817100610164001e
:100f10008100d1000080d3008984d3000884d300ed
:100f20008b05e8000442e800f7ff3a0007003700ad
:100f30000804440089844c00000048008180480077
:100f40008b05e9000442e900f9ff3a00aefe070014
:100f50004f05be004f04be00000006000000fa006e
:100f6000889fbe000004be00050037000000fb00a3
:100f70008900780021000700e10f400004003200e2
:100f800038407800e04f5000f8ff3a000000eb00d6
:100f90004f04be000080fa0000000600e135220088
:100fa0000000fa00881f7800ecff0700e1352200fe
:100fb00000047800a000200010000700080078005e
:100fc0004f0478000080fa0000000600e13522009e
:100fd0000000fa00090007000080fa000000060087
:100fe000e03522000000fa0068015700ceb89700f3
:100ff000480007000080fa00000006000000fa0028
:10100000889fbe00010478008084eb0038029000c5
:10101000e20262003b003200040378009802900074
:101020000620b20002003a00e08f520035003a007c
:101030000490a0008004780034049800f90fb200f6
:10104000e08f520002003a00a8029000050c7800e0
:10105000ea8f540005003a000408b20003003a0089
:1010600088007800d0002000e4ff070018029000fc
:10107000d8029000850f52000b0032000402e800f5
:1010800015c0b3001404980018027800094a7800cb
:10109000040ce800043c2200054a7800ea8f540062
:1010a00018003a00050037000940780088007800f1
:1010b000a003070080047800120037003802900077
:1010c0000410b2000f00320018019000a800900038
:1010d0004800900035fd070018029000840f500072
:1010e00004003200380290000403b3003404980076
:1010f0008084eb000002eb001404980028029000aa
:10110000040c7800090078004f04be000080fa004b
:10111000000006003a00fa00889fbe000117980000
:101120008a9fbe00421798008c9fbe008006780000
:101130000000eb0060179800730337008e109000da
:1011400054c2b3008100e80001179800844f50009a
:1011500006003a00010278000006eb0001c3b3006c
:1011600000c2b300b7c2b300100037003d029000c8
:101170000404b200040032001d027800004a780026
:10118000840ee800050037000000fb008d007800a9
:101190009aff0700e10f40005b0332006e119000e0
:1011a0000201e800621798005703370084027800b4
:1011b000d3c2b30034437800834f53000900320098
:1011c00005003c00804f530008003200874f530059
:1011d0000c003a0007003700814f530009003a0025
:1011e000060037000c30a000f0ff37000c00a00014
:1011f000eeff37000c10a000ecff37000c20a00021
:10120000eaff370062026600010032000c00a10014
:1012100068026600010032000c20a1000602fb00fb
:101220000403b100e90f52000c003e0005037800f2
:101230000002eb00b602fb00ea22b9000503b10090
:101240009603fb00048242000703b1008602780087
:10125000e98f5300f7ff3600080037000002eb006b
:10126000a7c2b300874f530004003a004e1390000a
:101270008502e80046027800461798008003eb00dc
:10128000e6c2b30057179800954f13000c003a00c0
:101290000ce0a00064435300d54f1300030032005c
:1012a0000503780007007800090037004e1490000d
:1012b0008502e800c804780048179800591798007c
:1012c0000503780009003700ea00b90000804300f8
:1012d00086027800b603fb000703b100e98f5300d4
:1012e000f9ff360050179800f5ff3700b642780036
:1012f000cbc6b300061798008bcf520025003200f2
:101300000f003c0036c6b30086cf5200a400320066
:1013100004003c00e0cf5200000332006b43530056
:101320000f00370046c6b30086cf520017003200c8
:101330006543430086cf5200b7003a0013003700e0
:1013400036c7b30086cf52001f00320007003c00b2
:101350006443530086cf5200140032000643e80075
:1013600086cf5200ac003a001300370056c7b300d6
:1013700086cf5200ad0032006343430086cf520057
:10138000a5003a00054f78000d003700054f7800a2
:10139000a8003700f00366000501200001003200bc
:1013a000050028000c867200d0ff3700054f78003a
:1013b0000c60a0009f003700054f78000c50a00083
:1013c0000c70a0009b0037004e109000054f780075
:1013d000c00278004017980075179800e08f5200ff
:1013e00002003a0022322200721798007e13900009
:1013f0008002eb00010037008502e800850343000e
:101400008041eb0097cf1100fbff3a00051f9800c9
:10141000de129000e08f5200050032000e1b90009b
:10142000868f52000200310085037800071f980064
:101430008e1a90000004eb00850f52000100360068
:10144000050452006806660009c2b30011003200ac
:101450002d0037003d0290000404b2000400320069
:101460001d027800094a7800840ee8000500370064
:101470008d00780000022000e0fe0700e10f400030
:10148000030032006e1590000a05e8006a17980004
:101490000804e900e00f5400eeff3a000084eb007e
:1014a00019003700bd0290000504b20009003200a7
:1014b000880278009d03780035437800864b7800d9
:1014c00005047800870ee800e04f53000a003a0058
:1014d00013003700880278008d0078003500fb008b
:1014e000441f980005047800c4fe07004e1a9000bf
:1014f000e10f40000a0032006e1090000000e8008a
:1015000060179800060037000c0278000806780083
:101510007e1490008e1c90001e1d9000ae1d900049
:10152000890278008504e900e08f5200ddff3a006f
:1015300078179800091f98001a1f98002b1f980011
:101540000c04780004067800e00f56006e023200aa
:1015500009c2b3006e1690000e0037003d029000e5
:101560000404b200040032001d027800094a780029
:10157000840ee800050037008d007800000220008e
:101580009efe0700e10f4000010032000c06e8005b
:101590000804e900e00f5400f0ff3a005902370058
:1015a000ce10900070036600410478004117980047
:1015b000cfc4de00090578008a0578000800be0067
:1015c0000a01be004800de00c80add00008072008b
:1015d000004f7800e00f530009003200e04f500048
:1015e00007003200e14f40000500320026002000d5
:1015f0001047980028479800061f980003003700fe
:1016000017002000071f9800184798000e04e800f4
:10161000781798007eff37001a002000054f7800e9
:101620007e1798000a1f980079ff3700054f780051
:101630000c0cb3008c027800050cb2003b003a00a1
:10164000e00f560005003d00ce1290004501be009f
:101650004500be00451798000f003700f0026600f5
:10166000120032004e1490004803be004607980056
:10167000570798004817980098029000cfaade00fc
:1016800065079800750798004e009000de009000f6
:101690006e019000fe01900070179800011f9800e5
:1016a000121f9800231f98000b003700ce109000e7
:1016b000c102780005047800cfc4de000905780077
:1016c0008a0578004117980078179800091f98003c
:1016d0001a1f98002b1f98007e1090008e18900003
:1016e0001e199000ae199000e00f5000e08f5800d6
:1016f000e00f5900e08f590032003d006000b80053
:101700006011b8007e1490008e1c90001e1d900089
:10171000ae1d90003c00b3000804500089845800be
:101720000a0559008b85590022003700e00f56004a
:1017300005003d00ce1290004501be004500be00f0
:10174000451798000f003700f002660012003200c3
:101750004e1490008004eb004803be000005eb002f
:10176000460f9800570f9800690f98007a0f98005d
:101770004e089000de0890006e099000fe0990006f
:101780004817980070179800011f9800121f9800c2
:10179000231f98000b003700ce109000c102780084
:1017a0004117980005047800090020000a00200075
:1017b0000b00200078179800091f98001a1f980046
:1017c0002b1f9800de149000e08f54000d003a00ab
:1017d0001a0020007e1090008e1890001e199000b4
:1017e000ae1990005a179800e00f5000e08f580093
:1017f000e00f5900e08f5900020032008000eb003a
:10180000511798000c01780005042000020cb2006a
:1018100032179800850f51003400320003003c005d
:10182000e00f510008003200480037000508200092
:10183000be119000858f510014003200050c20006d
:10184000858f510041003a004615220015c0b300b3
:101850003600be003601be007e1490008e1c900043
:101860001e1d9000ae1d90000040e10001c8e10087
:1018700002d0e10003d8e100330039008542e800de
:10188000f4cf5200f2ff3a002f00370015c0b3002a
:1018900000012000010020006011b8007e149000bb
:1018a0008e1c90001e1d9000ae1d90000040e100b7
:1018b00001c8e10002d0e10003d8e10022003900b4
:1018c000490020000000d0008180d2000281d200b7
:1018d0008381d2008904e900faff3a008542e800da
:1018e000f0cf5200edff3a001700370015c0b300eb
:1018f00080002000010020006011b8007e149000dc
:101900008e1c90001e1d9000ae1d90000040e10056
:1019100001c8e10002d0e10003d8e1000a0039006b
:10192000390020000000d0008180d2000281d20066
:101930008381d2008904e900faff3a008542e80079
:10194000f5cf5200edff3a00054f78009e02fb00f4
:101950005e1590008a8f520002003d000a4f780009
:1019600004003700de159000858f550001003d0012
:1019700055179800e00f520003003200e3026600a2
:10198000010032000402e90005002400850266001f
:10199000060032005e109000800f520002003400fa
:1019a00000025200010037000002eb008000eb0053
:1019b0009e02fb0021179800850f520002003400a0
:1019c0008502520025179800640266004500320027
:1019d000e202660061026600e08f520017003200ea
:1019e000bd0290000504b200080032009d0278009c
:1019f000b6c2b300e00f52000100320006c3e80097
:101a0000864a7800850ee80008003700b002200002
:101a1000e00f5200010032000080e8008d007800e5
:101a200076fd0700e10f4000160032006e119000b5
:101a30000201e8006217980012003700e00f520020
:101a4000100032003d0290000404b2000500320094
:101a50001d02780005c2b300054a7800840ee80034
:101a6000050037008d0078000002200063fd0700ac
:101a7000e10f400003003200ee1190008301e80006
:101a8000631798002e129000e00f52005b003200a6
:101a900008c3b300840478003d0290000404b2003f
:101aa000040032001d027800084a7800840ee80025
:101ab000050037008d007800000320004ffd07006f
:101ac000e10f400003003200ee1290008502e800b2
:101ad000651798008904e900efff3a00291798007c
:101ae000460037002e139000e00f5300160032001e
:101af0006802660014003a0008c2b3008604780049
:101b00003d0290000404b200040032001d0278007f
:101b1000084a7800840ee800050037008d00780040
:101b20000002200035fd0700e10f400003003200f5
:101b3000ee1390008703e800671798008904e90016
:101b4000efff3a0029179800e20266006102660082
:101b5000e08f520017003200bd0290000504b20071
:101b6000080032009d027800b6c2b300e00f5200b8
:101b70000100320006c3e800864a7800850ee800be
:101b800008003700b0022000e00f520001003200d0
:101b90000080e8008d00780018fd0700e10f40008c
:101ba000160032006e1490000804e80068179800d0
:101bb00012003700e00f5200100032003d0290008a
:101bc0000404b200050032001d02780005c2b30013
:101bd000054a7800840ee800050037008d00780083
:101be0000002200005fd0700e10f40000300320065
:101bf000ee1490008904e800691798005e159000c3
:101c0000c41422008a02e900f0056600c32add0040
:101c10000c007800048242000002b2001417980001
:101c20003b079800200798009c003700de109000ca
:101c30003e1190008100e900030420005117980034
:101c4000830f51006f00320003003c00e00f510091
:101c5000080032007c00370004082000be1290000b
:101c6000848f520051003200040c2000848f5200f7
:101c700075003a00e00f56001b003d001e13900057
:101c80007e1090008e1890001e199000ae199000e2
:101c90003604be002605be000802be000a03be00d0
:101ca0008d0107000802be000a03be00004f780045
:101cb0000000fb00cf80de00010178008201780087
:101cc000f60107007e1490008e1c90001e1d9000ef
:101cd000ae1d90000004540081845c0002055d008c
:101ce00083855d0020003700be049000e08f540023
:101cf000220032001e1090007e1290008e1a90007a
:101d00003004be002005be00441f98000400be0041
:101d10000801be00351f980019fc07000801be002d
:101d2000004f78000000fb00cf80de00c5000700f8
:101d30004e1a9000be1a90000001520081815a0094
:101d40000002eb00020f9800130f9800340f980068
:101d50008001eb00230f98000e0c90009e0c900069
:101d60002e0d9000be0d900078179800091f980066
:101d70001a1f98002b1f9800090037009e1490002e
:101d80007e15900019027800110009000485d80022
:101d9000a4002000110009000480d800014f780041
:101da0000bc3b3001ecf45002700370014312200bb
:101db0002e009000e00f500001003200043022009d
:101dc000de109000c20add007e1090008e18900098
:101dd0001e199000ae1990008502e900050033003d
:101de0008301d1000281d3008180d3000080d30021
:101df000f9ff3700ef02600005024200144f78003f
:101e0000110037005e1190007e1490008e1c90002f
:101e10001e1d9000ae1d9000e312b90001c3b30077
:101e2000040078000000e900050033008b05d100b4
:101e30000a85d3008984d3000884d300f9ff3700d2
:101e400067426400014f42003d0290000404b2006a
:101e5000070032009d0278001e427800844a780014
:101e6000850ee800e04f520006003a0008003700f7
:101e70001e00fb008d00780060fc0700e10f4000b1
:101e8000030032006e1190000201e8006217980012
:101e90009e119000e8815100131798005e12900087
:101ea000e00f520061ff3a0068066600160032003b
:101eb000ae129000e08f5200130034006e169000b6
:101ec00008c2b300850478003d0290000404b2000b
:101ed000040032001d027800084a7800840ee800f1
:101ee000050037008d0078000002200043fc070049
:101ef000e10f4000010032000c06e8008904e9000f
:101f0000f1ff3a006c1798000e139000164078000d
:101f1000004f7800e04f500088fc3a004f06be00aa
:101f20006e1090004f05be004f04be000080fa0006
:101f3000000006000200fa00889fbe00010478003d
:101f4000004f780038029000840278000504b20047
:101f5000020032000000fb0033003700e2026200a2
:101f600005003a000403b3001504980034049800f7
:101f70000080eb002c003700d8049000e08f540064
:101f800006003a00120020008e0078004800900001
:101f900086f907001904980022003700a802900073
:101fa000e08f520008003a00453c22000430a000b7
:101fb00025049800050c78003404980025002000c2
:101fc000550498001504980018019000a80090008e
:101fd0004800900075f90700280290008082eb000d
:101fe000150498001e4a7800040ce800a4c0b30051
:101ff0009e4f12000b003a00380290000410b2000d
:102000000800320018019000a800900048009000dd
:1020100066f907000002eb00140498002802900003
:10202000040c78001e00fb004f04be000080fa0084
:10203000000006000000fa0000c0da000080fa008c
:1020400000000600020ab900001bb9000200b80037
:102050008100420081004300000006000000fa00f9
:10206000889fbe008a9fbe003004be002005be00cf
:102070000404440085844c0006054d0087854d000e
:102080000898be000a90be000440e10005c8e100c7
:1020900006d0e10007d8e1000200310068004000ee
:1020a0001008e8004f05be004f04be000080fa0093
:1020b000000006001000fa00889fbe008a9fbe0044
:1020c0000605be000404be003002be002003be00b0
:1020d000049fbe000697be001100200008025200b7
:1020e00089825a000a035b008b835b0044079800d7
:1020f0005507980066079800770798000498be0077
:102100000698be003e02be002e03be000820e1007d
:1021100009a8e1000ab0e1000bb8e10001003900b4
:102120008000eb004f05be00108810004f04be0079
:102130000080fa00000006001400fa00889fbe002c
:102140005b0007008a9fbe008c9fbe000006eb006c
:102150004c0798003c0798002c0798001c07980033
:102160000c0f78000605be000404be000d0420001c
:102170004e039000be029000860343002e029000a2
:10218000e00f530003003d002a000700b3ff0700e3
:102190000200370027000700c6ff0700ce029000ac
:1021a000150f9800e08f5200090035004500070028
:1021b00014002000050020006033b8000000720009
:1021c0008180720002017300838173003800070070
:1021d0000c06e8008d0f5600e5ff3a001e0a90003d
:1021e000e00f520004003d000802be000a03be00da
:1021f0000e00780099ff07004eba9700e00f5200da
:1022000006003a003e04be002e05be0058079800a6
:10221000690798007a0798000b0f98004f06be00d8
:10222000280007004f05be004f04be000080fa00e2
:10223000000006004f2bde0022000700868373009b
:10224000858242004f23de00470798008682720095
:1022500004024200350798009e0290004f2bde00da
:102260008582420006027200240798001e02780050
:102270004f23de0004024200868272001507980098
:102280004f18de00000f72000e0007000802be00ab
:102290000a03be000000400081804800020149009e
:1022a00083814900020007000e007800000006004c
:1022b000500798006107980072079800030f980074
:1022c000000006005e009000ee0090007e0190008d
:1022d0008e099000000006000000fa00881f7800b8
:1022e00018002000881f780093ff07008f87e900ff
:1022f0004f0478000080fa00000006000000fa0099
:10230000801feb008cff07008f87e9000080fa0038
:10231000000006000000fa00889fbe008a9fbe00f1
:10232000e00f5000e08f5800e00f5900e08f590097
:102330000c003d006044b8006055b8000000540037
:1023400081805c0002015d0083815d001800200037
:102350001600070008003d00190007000004eb000c
:10236000050037000004eb001000070002003d00ec
:102370001300070018002000d7ff0700e00f5400eb
:10238000060032006022b8006033b800000052003e
:1023900081805a0002015b0083815b004f05be0013
:1023a0004f04be000080fa0000000600e00f52005b
:1023b000e08f5a00e00f5b00e08f5b00000006003a
:1023c0006044b8006055b8000402540085825c0087
:1023d00006035d0087835d00000006000000fa0030
:1023e000889fbe008a9fbe008c1f7800e00f5000bf
:1023f000e08f5800e00f5900e08f59000d003d00bc
:102400006044b8006055b8001c0020000000540073
:1024100081805c0002015d0083815d000820e10095
:1024200009a8e1000ab0e1000bb8e1000d003d0091
:10243000080037000006eb00e00f5200e08f5a0062
:10244000e00f5b00e08f5b0006003d006044b800d9
:102450006055b8000402540085825c0006035d00ec
:1024600087835d00a5ff0700e00f560006003200dd
:102470006022b8006033b8000000520081805a002a
:1024800002015b0083815b004f0678004f05be00b0
:102490004f04be000080fa00000006000000fa00b1
:1024a000889fbe008a9fbe008c1f78000006eb004c
:1024b000e00f5000e08f5800e00f5900e08f590006
:1024c00007003d006044b8006055b8001c002000c3
:1024d0000000540081805c0002015d0083815d008a
:1024e000e00f5200e08f5a00e00f5b00e08f5b00ce
:1024f00007003d006044b8006055b8000c00a20021
:102500000402540085825c0006035d0087835d0041
:102510000d000700e00f5600060032006022b800f0
:102520006033b8000000520081805a0002015b0055
:1025300083815b004f0678004f05be004f04be004c
:102540000080fa0000000600889fbe008a9fbe003f
:102550008c9fbe000404b8000506b800890446003c
:1025600060854e000606b8000a054600e0854e006c
:102570000706b8008b054600040eb8008904460023
:102580000a854e00e0854d00050eb8000a0546009c
:102590008b854e00060eb8008b0546000416b80069
:1025a0000a0546008b854e000516b8008b054600cf
:1025b000041eb8008b0546000800be000a01be00dc
:1025c0004f06be004f05be004f04be0000000600cf
:020000040000fa
:1025d0004f72000064720000652000006465000016
:1025e000207000007265000061750000746f0000cb
:1025f000206100007072000065730000207300000d
:102600006f720000746900006520000064750000ae
:10261000206d00006f640000652000006d61000007
:102620006e750000656c00002c2000002564000021
:1026300020630000796300006c650000730a0000ed
:10264000004f00007264000072650000206400000a
:102650006520000070720000656100007574000064
:102660006f20000072650000637500007272000048
:10267000656e0000742c000020250000642000001e
:1026800063790000636c0000657300000a000000bd
:102690002d2d00002d2d00002d20000041460000b2
:1026a0004649000043480000452000002564000022
:1026b000202d00002d2d00002d2d00002d200000cc
:1026c000454e000052480000200a00000041000072
:1026d0006666000069630000686500002025000050
:1026e00064200000656e0000726800005f54000006
:1026f000533100005f310000202000003a25000027
:1027000034640000200a00000041000066660000fa
:102710006963000068650000202500006420000057
:10272000656e0000726800005f54000053320000c4
:102730005f310000202000003a25000034640000d2
:102740000a0000004166000066690000636800003e
:102750006520000025640000206500006e72000006
:10276000685f00005431000020200000202000009d
:10277000203a000025340000640a000000410000f7
:10278000666600006963000068650000202500009f
:1027900064200000656e0000726800005f54000055
:1027a000533100005f320000202000003a25000075
:1027b000346400000a000000416600006669000001
:1027c00063680000652000002564000020650000ab
:1027d0006e720000685f000054530000325f00001a
:1027e00032200000203a000025340000640a000076
:1027f0000041000066660000696300006865000033
:102800002025000064200000656e00007268000052
:102810005f54000032200000202000002020000033
:102820003a250000346400000a0000004166000000
:1028300066690000636800006520000025640000f0
:10284000206500006e720000685f000054530000b5
:10285000315f000033200000203a000025340000e2
:10286000640a000000410000666600006963000021
:10287000686500002025000064200000656e0000ef
:10288000726800005f540000533200005f330000a4
:10289000202000003a250000346400000a000000f7
:1028a0004166000066690000636800006520000062
:1028b00025640000206500006e720000685f000063
:1028c000543300002020000020200000203a0000a7
:1028d00025340000640a0000004100006666000024
:1028e0006963000068650000202500006420000086
:1028f000656e0000726800005f6300006f6d00008d
:1029000070310000202000003a25000034640000ef
:102910000a0000004166000066690000636800006c
:102920006520000025640000206500006e72000034
:10293000685f0000636f00006d70000032200000cf
:10294000203a000025340000640a00000041000025
:1029500066660000696300006865000020250000cd
:1029600064200000656e00007268000020660000b0
:10297000756c00006c200000202000003a2500004b
:10298000346400000a0000002d2d00002d2d0000f1
:102990002d20000041460000464900004348000049
:1029a0004520000025640000202d00002d2d000092
:1029b0002d2d00002d200000454e0000524c00003f
:1029c000200a000000410000666600006963000004
:1029d000686500002025000064200000656e00008e
:1029e000726c00005f540000533100005f31000042
:1029f000202000003a250000346400000a00000096
:102a00004166000066690000636800006520000000
:102a100025640000206500006e7200006c5f0000fd
:102a200054530000325f000031200000203a0000c3
:102a300025340000640a00000041000066660000c2
:102a40006963000068650000202500006420000024
:102a5000656e0000726c00005f54000031200000c1
:102a600020200000202000003a25000034640000ef
:102a70000a0000004166000066690000636800000b
:102a80006520000025640000206500006e720000d3
:102a90006c5f000054530000315f000032200000e2
:102aa000203a000025340000640a000000410000c4
:102ab000666600006963000068650000202500006c
:102ac00064200000656e0000726c00005f5400001e
:102ad000533200005f320000202000003a25000041
:102ae000346400000a0000004166000066690000ce
:102af0006368000065200000256400002065000078
:102b00006e7200006c5f0000543200002020000054
:102b100020200000203a000025340000640a000054
:102b200000410000666600006963000068650000ff
:102b30002025000064200000656e0000726c00001b
:102b40005f540000533100005f330000202000007c
:102b50003a250000346400000a00000041660000cd
:102b600066690000636800006520000025640000bd
:102b7000206500006e7200006c5f0000545300007e
:102b8000325f000033200000203a000025340000ae
:102b9000640a0000004100006666000069630000ee
:102ba000686500002025000064200000656e0000bc
:102bb000726c00005f5400003320000020200000f1
:102bc000202000003a250000346400000a000000c4
:102bd000416600006669000063680000652000002f
:102be00025640000206500006e7200006c5f00002c
:102bf000636f00006d70000031200000203a00007b
:102c000025340000690a00000041000066660000eb
:102c10006963000068650000202500006420000052
:102c2000656e0000726c00005f6300006f6d000055
:102c300070320000202000003a25000034690000b6
:102c40000a00000041660000666900006368000039
:102c50006520000025640000206500006e72000001
:102c60006c200000667500006c6c000020200000e5
:102c7000203a000025340000640a000000410000f2
:102c8000666600006963000068650000202500009a
:102c900064200000656e0000726800005f54000050
:102ca0005f410000555400004f200000202000002c
:102cb000203a00002534000064200000202000009d
:102cc0002534000064200000202000002063000064
:102cd000796300006c650000733a00002025000055
:102ce000346400000a0000004166000066690000cc
:102cf0006368000065200000256400002065000076
:102d00006e7200006c5f0000545f000041550000cf
:102d1000544f000020200000202000003a25000031
:102d200034640000202000002025000034640000ee
:102d3000202000002020000063790000636c000068
:102d4000657300003a200000253400006420000074
:102d50000a0000002d2d00002d2d00002d2d00005b
:102d60002d2d00002d2d00002d2d00002d2d0000fb
:102d70002d2d00002d2d00002d2d00002d2d0000eb
:102d80002d2d00002d2d00002d2d00002d2d0000db
:102d90002d2d00002d2d00002d2d00002d2d0000cb
:102da0002d2d00002d2d00002d2d00002d2d0000bb
:102db0002d2d00002d2d00002d2d00002d2d0000ab
:102dc0002d2d0000004400006562000075740000b5
:102dd0002064000075200000707200006f67000022
:102de000726100006d6d000065000000526500001a
:102df0006375000070650000726100007469000076
:102e00006f6e00002073000077690000746300009b
:102e10006820000068610000757400002e2e00001c
:102e20002e20000000520000656300007570000055
:102e30006572000061740000696f00006e20000080
:102e40007377000069740000636800002068000068
:102e50006175000074200000203a00002045000049
:102e60005252000045550000522000000052000060
:102e700065630000757000006572000061740000f9
:102e8000696f00006e200000737700006974000015
:102e90006368000020680000617500007420000075
:102ea000203a000020530000554300004345000035
:102eb000532c000020530000572000003d2000004c
:102ec00025640000200a0000005200006563000035
:102ed000757000006572000061740000696f000089
:102ee0006e200000737700006974000063680000c2
:102ef00020620000617300002e2e00002e200000d2
:102f000000520000656300007570000065720000eb
:102f100061740000696f00006e200000737700008c
:102f200069740000636800002062000061730000a3
:102f3000202000003a2000004552000052450000c9
:102f4000555200002000000052650000637500002b
:102f50007065000072610000746900006f6e00000f
:102f6000207300007769000074630000682000008f
:102f70006261000073200000203a0000205300002e
:102f80005543000043450000532c0000205300002f
:102f9000572000003d20000025640000200a0000aa
:102fa000006d00006f7400006f720000685f000029
:102fb0007479000070650000203d000020300000a2
:102fc000782500003032000058200000202000004a
:102fd0006d6f0000746f0000726c00005f74000081
:102fe00079700000652000003d200000307800006e
:102ff0002530000032580000200a00000043000085
:103000006f6e000066690000677500007261000065
:10301000746900006f6e000020700000696300009a
:1030200020650000736300006c610000766500009d
:10303000206d00006f7400006575000072200000b4
:1030400068610000757400002030000078250000e1
:1030500030320000582e00002e2e0000200a000002
:10306000004300006f6e0000666900006775000095
:1030700072610000746900006f6e00002070000033
:103080006963000020650000736300006c6100004c
:1030900076650000206d00006f740000657500000b
:1030a000722000006861000075740000202000009c
:1030b0003a200000455200005245000055520000e1
:1030c00020000000436f00006e660000696700008a
:1030d0007572000061740000696f00006e200000ce
:1030e000706900006320000065730000636c0000dd
:1030f00061760000652000006d6f000074650000bf
:1031000075720000206800006175000074200000e6
:10311000203a0000205300005543000043450000c2
:1031200053200000004300006f6e0000666900003d
:103130006775000072610000746900006f6e000026
:1031400020700000696300002065000073630000c8
:103150006c61000076650000206d00006f74000057
:10316000657500007220000062610000732000009d
:103170003078000025300000325800002e2e00006c
:103180002e2000000a000000436f00006e66000061
:10319000696700007572000061740000696f0000cb
:1031a0006e2000007069000063200000657300005d
:1031b000636c000061760000652000006d6f000008
:1031c00074650000757200002062000061730000e9
:1031d000202000003a200000455200005245000027
:1031e0005552000020000000436f00006e66000092
:1031f000696700007572000061740000696f00006b
:103200006e200000706900006320000065730000fc
:10321000636c000061760000652000006d6f0000a7
:103220007465000075720000206200006173000088
:10323000202000003a2000005355000043430000c6
:103240004553000020000000457200007265000038
:1032500075720000206400006520000064650000b5
:103260007465000063740000696f00006e20000048
:103270006d6f000074650000757200002000000092
:103280002020000020200000202000002534000025
:10329000642c000025330000692000007c20000021
:1032a00025330000692c000025330000692c000044
:1032b00025340000692000007c2000002533000038
:1032c000692c000025330000692c00002534000023
:1032d0006920000020200000202000007c20000049
:1032e00025360000640a000000000000457200005e
:1032f00072650000757200002063000072690000b2
:103300007469000071750000652000003a2000001b
:103310007061000073740000696c00006c6500004f
:10332000207000006c650000696e000065200000e0
:10333000766900007465000073730000650000008a
:103340004572000072650000757200002063000085
:10335000726900007469000071750000652000004a
:103360003a20000061750000637500006e65000082
:103370002061000066660000696300006865000067
:1033800020640000657400006563000074e90000bb
:103390006500000045720000726500007572000053
:1033a00020630000726900007469000071750000fc
:1033b000652000003a20000064650000746500008c
:1033c00063740000696f00006e200000424d000031
:1033d000206500006e200000707200006561000032
:1033e000757400006f2000006f7500002061000000
:1033f000757400006f0000004572000072650000e7
:10340000757200002063000072690000746900009a
:1034100071750000652000003a2000006572000010
:10342000726500007572000020730000687500006e
:103430006e740000206d00006f7400006575000060
:103440007200000045720000726500007572000095
:10345000206300007269000074690000717500004b
:10346000652000003a200000746900006d650000ce
:103470006f75000074200000636500006c6c000034
:10348000756c000065200000706c0000656900002c
:103490006e6500002076000069740000657300000e
:1034a0007365000000450000727200006575000041
:1034b00072200000637200006974000069710000ee
:1034c00075650000207200006573000065740000df
:1034d0003a200000657200007265000075720000fd
:1034e0002064000065200000636f00006d20000074
:1034f000656e000074720000652000006c650000bd
:10350000206d0000616900007472000065200000f9
:1035100065740000206c00006573000020650000e9
:10352000736300006c6100007665000073000000aa
:10353000457200007265000075720000206c00008a
:103540006567000065720000653a000020700000a9
:1035500061730000746900006c6c0000652000005d
:10356000706500006e640000616e00007420000051
:1035700064650000636500006c6500007261000016
:10358000746900006f6e0000202c000020630000b2
:103590007074000020250000640a0000004500004f
:1035a0007272000065750000722000006c650000fa
:1035b00067650000726500003a2000007469000031
:1035c0006d6500006f7500007420000063650000e9
:1035d0006c6c0000756c00006520000070650000d8
:1035e00074690000746500002076000069740000b2
:1035f0006573000073650000202c0000206300004c
:103600007074000020250000640a000000490000da
:103610006e630000726500006d6500006e7400004e
:1036200061740000696f00006e200000706500008a
:103630007469000074650000732000007669000062
:10364000746500007373000065730000004500009e
:103650007272000065750000722000006c65000049
:1036600067650000726500003a2000007472000077
:103670006f70000020640000276500007272000077
:103680006575000072730000203d00003d3e0000a3
:103690002065000072720000657500007220000055
:1036a00063720000697400006971000075650000b4
:1036b0000045000072720000657500007273000022
:1036c000206c0000656700006572000065730000f3
:1036d0003a200000524100005a000000536f0000e1
:1036e000727400006965000020640000752000000d
:1036f0006d6f000064650000206d0000616e0000c9
:10370000756500006c3a000020520000415a00002c
:103710002064000065200000746f000075740000d4
:1037200065730000206c00006573000020650000d8
:1037300072720000657500007273000020000000c6
:10374000457200007265000075720000206c000078
:103750006567000065720000653a00002070000097
:1037600061730000746900006c6c0000652000004b
:10377000706500006e640000616e0000742000003f
:1037800064650000636500006c6500007261000004
:10379000746900006f6e0000004500007272000046
:1037a00065750000722000006c6500006765000010
:1037b000726500003a200000746900006d65000029
:1037c0006f75000074200000636500006c6c0000e1
:1037d000756c0000652000007065000074690000d1
:1037e00074650000207600006974000065730000b5
:1037f00073650000000000002d2d00002d2d00003d
:103800002d2d00002d2d00002d2d00002d2d000050
:103810002d2d00002d2d00002d2d00002d2d000040
:103820002d2d00002d2d00002d2d00002d2d000030
:103830002d2d00002d2d00002d2d00002d2d000020
:103840002d2d00002d2d00002d2d00002d2d000010
:103850002d2d00002d2d00002d2d00002d2d000000
:103860002d2d00002d2d0000004600006c61000091
:1038700073680000206900006e6900007400000099
:10388000466c000061730000682000007365000052
:10389000637400006f7200002031000020300000cf
:1038a0007825000030340000782500003034000016
:1038b000780a0000004600006c6100007368000098
:1038c0002073000065630000746f00007220000028
:1038d00032200000307800002530000034780000ed
:1038e00025300000347800000a000000466c00001b
:1038f0006173000068200000666f0000726d0000b8
:1039000061740000004600006c61000073680000f4
:103910002063000068650000636b0000204f00001a
:103920004b0000002020000020200000202000008c
:10393000464c000041530000482000004d4100006b
:103940005354000045520000204d00004355000034
:1039500020540000454d00005020000020200000b1
:103960003a2000004d4900004e20000025340000a0
:1039700064200000204d0000415800002025000078
:10398000346400000a000000202000002020000015
:1039900020200000464c0000415300004820000059
:1039a00053480000204d0000435500002054000003
:1039b000454d000050200000202000002020000085
:1039c000202000003a2000004d4900004e20000059
:1039d0002534000064200000204d00004158000004
:1039e00020250000346400000a00000020200000b0
:1039f0002020000020200000464c00004153000021
:103a000048200000534800002042000052490000b6
:103a10004447000045200000544500004d50000080
:103a200020200000202000003a2000004d49000026
:103a30004e2000002534000064200000204d0000ce
:103a40004158000020250000346400000a000000f6
:103a5000202000002020000020200000464c000014
:103a6000415300004820000053480000204200005d
:103a70005249000044470000452000004355000023
:103a800052520000454e0000542000003a20000031
:103a90004d4900004e200000253400006420000045
:103aa000204d000041580000202500003464000033
:103ab0000a0000002020000020200000202000003c
:103ac000464c00004153000048200000534c0000c9
:103ad000204d00004355000020540000454d0000db
:103ae00050200000202000002020000020200000a6
:103af0003a2000004d4900004e200000253400000f
:103b000064200000204d00004158000020250000e6
:103b1000346400000a000000202000002020000083
:103b200020200000464c00004153000048200000c7
:103b3000534c00002042000052490000444700005e
:103b400045200000544500004d500000202000009a
:103b5000202000003a2000004d4900004e200000c7
:103b60002534000064200000204d00004158000072
:103b700020250000346400000a000000202000001e
:103b80002020000020200000464c0000415300008f
:103b900048200000534c0000204200005249000021
:103ba00044470000452000004355000052520000e9
:103bb000454e0000542000003a2000004d4900000e
:103bc0004e2000002534000064200000204d00003d
:103bd0004158000020250000346400000a00000065
:103be000466c0000617300006820000063680000fc
:103bf000656300006b2000004e4f00004b0000008a
:103c00004368000061720000676500007572000083
:103c100020740000656e0000736900006f6e000084
:103c2000206d000061780000004300006861000022
:103c30007267000065750000722000006465000076
:103c400062720000616e00006368000065000000a1
:103c50002020000020200000202000004d41000016
:103c60005354000045520000204d00004355000011
:103c700020540000454d000050200000202000008e
:103c80003a2000004d4900004e200000253400007d
:103c900064200000204d0000415800002025000055
:103ca000346400000a0000002020000020200000f2
:103cb0002020000053480000204d00004355000024
:103cc00020540000454d000050200000202000003e
:103cd00020200000202000003a2000004d49000074
:103ce0004e2000002534000064200000204d00001c
:103cf0004158000020250000346400000a00000044
:103d00002020000020200000202000005348000058
:103d100020420000524900004447000045200000b6
:103d2000544500004d5000002020000020200000dd
:103d30003a2000004d4900004e20000025340000cc
:103d400064200000204d00004158000020250000a4
:103d5000346400000a000000202000002020000041
:103d6000202000005348000020420000524900007b
:103d70004447000045200000435500005252000017
:103d8000454e0000542000003a2000004d4900003c
:103d90004e2000002534000064200000204d00006b
:103da0004158000020250000346400000a00000093
:103db000202000002020000020200000534c0000a4
:103dc000204d00004355000020540000454d0000e8
:103dd00050200000202000002020000020200000b3
:103de0003a2000004d4900004e200000253400001c
:103df00064200000204d00004158000020250000f4
:103e0000346400000a000000202000002020000090
:103e100020200000534c00002042000052490000c6
:103e20004447000045200000544500004d5000006c
:103e300020200000202000003a2000004d49000012
:103e40004e2000002534000064200000204d0000ba
:103e50004158000020250000346400000a000000e2
:103e6000202000002020000020200000534c0000f3
:103e70002042000052490000444700004520000055
:103e80004355000052520000454e000054200000ef
:103e90003a2000004d4900004e200000253400006b
:103ea00064200000204d0000415800002025000043
:103eb000346400000a0000002020000020200000e0
:103ec00020200000535400004f5200004520000005
:103ed00053540000415400005553000000000000fe
:103ee000546500006d70000073200000656e0000d6
:103ef0007472000065200000636500006c6c0000b7
:103f0000756c000065200000706f00007572000085
:103f1000206400006574000065630000746900009f
:103f20006f6e0000203100002f37000020310000ac
:103f30002f31000030200000203a00002025000032
:103f4000640a0000004d00006f74000065750000f9
:103f5000722000004d41000050550000422000003a
:103f60006d6f000064650000203100002f310000fb
:103f7000300000004d6f0000746500007572000095
:103f8000204d00004150000055420000206d00000f
:103f90006f64000065200000312f00003700000032
:103fa0004d6f000074650000757200002041000034
:103fb0004c4300004f4d0000206d00006f64000076
:103fc00065200000312f000031300000004d00005e
:103fd0006f7400006575000072200000414c000005
:103fe000434f00004d2000006d6f0000646500002d
:103ff000203100002f37000000000000496e000053
:1040000063720000656d0000656e00007461000061
:10401000746900006f6e000020700000657400007d
:104020006974000065730000207600006974000068
:1040300065730000736500007300000044650000b4
:1040400063720000656d0000656e00007461000021
:10405000746900006f6e000020700000657400003d
:104060006974000065730000207600006974000028
:104070006573000073650000732000006d6f000021
:104080007465000075720000206800006175000012
:1040900074000000456e0000766f0000692000008b
:1040a00076690000746500007373000065200000ed
:1040b0006d6f0000746500007572000020680000dc
:1040c00061750000742000002534000064200000a9
:1040d0000a000000456e0000766f000069200000b5
:1040e00076690000746500007373000065200000ad
:1040f0006d6f0000746500007572000020620000a2
:10410000617300002025000034640000200a0000d4
:0441100000000000ab
:020000040000fa
:104114000000fa000042eb00e5c82100844a780060
:10412400f5c82100844a780045822100844a780039
:1041340036c0b300c53a2200864a780046c0b300b0
:1041440005c92100864a7800d51e2200844a7800d9
:10415400c5dd2100844a78000002eb00d4ee88001b
:104164000080fa00000006000000fa00c4dd21000f
:10417400144278000483fb0007002000e50f53007d
:10418400e08f5b004b003e0006060100050037008f
:104194000c00370021003700280037002f003700bb
:1041a4001e003700c53a220066c0b300954f1300c5
:1041b40040003a000002eb00d4ee880014c0b300c3
:1041c4003c003700c53a220066c0b300954f130087
:1041d40035003a00853e2000d6ee8000850f53005e
:1041e40034003a0015c0b300d41e2200054a7800fa
:1041f4000002eb00a4c38800b4c38800843e2000fe
:10420400841f7800842e2900841f780073f307002c
:10421400e487570024c0b30026003700c53a2200c3
:1042240036c0b300954f130022003a000002eb00a1
:10423400d4ee8800064278001e003700c53a2200fa
:1042440066c0b300954f13001a003a000002eb0059
:10425400d4ee880044c0b30016003700c53a2200eb
:1042640066c0b300954f130011003a000577210092
:10427400d6ee8000850f53000e003a0015c0b3003f
:10428400d41e2200054a780004772100841f780098
:1042940014322900841f780050f30700e487570084
:1042a40054c0b300030037000042eb0001003700a4
:1042b4000042eb00c5dd2100844a78000080fa004a
:1042c400000006000000fa00889fbe008a9fbe001e
:1042d4008c9fbe0008c9210098447800a2ff070003
:1042e400184278000482fb0005002000ed0f520004
:1042f400e08f5a0015073e00040601000d00370048
:104304000f0037001e0037002b0037002e00370047
:104314004d003700550337005403370013043700aa
:1043240012043700ce0437000f0637000e0637009c
:104334000d063700e4c82100004aeb0003073700ec
:10434400888321001800be008cf107000002be0023
:104354004106200004007800240807001800be006d
:1043640086f107000002be00410620000400780028
:10437400510807008a07070029c0b300f306370075
:104384007f070700e14f5000f0063a00f28747002c
:10439400728457004191210008000900311c780003
:1043a4002801b100440a07007d0707008807780048
:1043b40039c0b300e506370071070700e14f50002c
:1043c400e2063a00e00637006d070700e14f5000af
:1043d400de063a00a4812100a4ee8800c4812100f5
:1043e400b4ee8800e4812100c4ee8800f28747001f
:1043f4007284570024b7210008000900341c780097
:104404002801b1002c0a070065070700823e20003e
:1044140031db800020db80007a3907000042eb00aa
:1044240045822100844a7800f5c82100844a780036
:10443400c4ee8000a5fa8000050a78008807780099
:1044440059c0b300c1063700e4c82100004aeb009c
:104454004b070700e14f500013003a00f4c8210055
:104464000043eb00944f13000f003a00d41e2200c7
:1044740017c0b30094cf13000b003a00c43a2200d3
:1044840061c0b30094cf100007003a00d41e22008c
:10449400004aeb0035c0b300c43a2200054a780054
:1044a40049c0b300a906370035070700e14f5000a3
:1044b4003a003a00c43a220065c0b30094cf120017
:1044c40036003a007439220016c0b300944f13002a
:1044d40032003a00843322008043eb0094cf13006f
:1044e4002e003a00e439220094cf13002b003a0046
:1044f400d439220094cf130028003a00f4c82100d4
:1045040014427800874f520004003a0055392200c3
:10451400954f1300a7023a000700370065392200bf
:1045240011c0b30095cf10000300320055392200aa
:1045340095cf10009f023a008042eb0066392200ba
:10454400054b780056392200054b7800458221003e
:104554000043eb00954f13000b003a000482fb006c
:1045640075372200954278008582fb008502e900b8
:10457400850f520091023a0015c0b3004482210015
:10458400054a78008d023700e04f52008b023a0052
:1045940044822100004aeb0088023700c4ee800008
:1045a4008003eb00948f130082023a00f4060700a4
:1045b400e14f50007f023a00448221008040eb002a
:1045c40094cf100018003a00f4c821001442780077
:1045d4000482fb0075372200954278000583fb00b6
:1045e4000603e900860f520074023a0017c0b300b4
:1045f40046822100074b7800e2cf520007003600c4
:10460400e503200085a2b90045f52100850242009a
:10461400c4ee8000150a780066023700c4ee8000fc
:10462400000aeb0063023700f4c821008042eb006b
:1046340094cf120061023a008433220094cf120016
:104644005c023a00e439220094cf120059023a0085
:10465400d439220094cf120056023a004482210039
:10466400004aeb007437220026c0b300944f1300b5
:1046740004003600c4ee8000a7fa8000070a780020
:1046840002003700c4ee8000000aeb00c43a2200a6
:1046940014427800e34f5200bf003a000004eb00dc
:1046a4008c3429008bf121007d362900881f780085
:1046b4008c1f780049f20700ea0320008ac5b9007c
:1046c4000a82450064029000841f7800881f7800e5
:1046d4008d1f780041f207000a824500240a9000e9
:1046e400841f7800881f780051382900811f7800c2
:1046f4003af207000a82450024029000841f7800e1
:10470400881f7800243a2900841f780033f20700b8
:104714000a82450074029000841f7800881f780084
:10472400f43b2900841f78002cf207000a8245001c
:10473400340a9000841f7800881f7800c43d290043
:10474400841f780025f207000a8245002f02b10079
:1047540034029000841f7800881f7800943f290059
:10476400841f78001df207000a824500040a9000a5
:10477400841f7800881f780064412900841f780012
:1047840016f207000a824500440a9000841f78004c
:10479400881f780034432900841f78000ff2070033
:1047a4000a82450044029000841f7800881f780024
:1047b40004452900841f780008f207000a82450096
:1047c400241a9000841f7800881f7800d44629009a
:1047d400841f780001f207000a824500341a900011
:1047e400841f7800881f7800a4482900841f78005b
:1047f400faf107000a8245004f02b100941f7800c5
:10480400881f7800744a2900841f7800f3f1070098
:10481400881f7800444c2900841f7800eff10700ba
:104824000a82450024129000841f7800881f7800b3
:10483400344e2900841f7800e8f107000a824500fd
:1048440064129000841f7800881f780004502900a7
:10485400841f7800e1f107000a824500640a900091
:10486400841f7800881f7800d4512900841f7800a1
:10487400daf107000a82450034129000841f7800a0
:10488400881f7800a4532900841f7800d3f10700ff
:104894000a8245002f02b10074129000841f780030
:1048a400881f780074552900841f7800cbf1070015
:1048b4000a824500740a9000841f7800881f7800db
:1048c40044572900841f7800c4f107000a82450078
:1048d40044129000841f7800881f7800145929001e
:1048e400841f7800bdf107000a824500041a900075
:1048f400841f7800881f7800e45a2900841f7800f8
:10490400b6f107000a82450004129000841f780063
:10491400881f7800b45c2900841f7800aff1070079
:104924000a824500441a9000841f7800881f78008a
:10493400845e2900841f7800a8f107000a824500dc
:104944004f02b100541a9000841f7800881f780029
:1049540054602900841f7800a0f107000a854500ef
:104964001a0590008a1f7800881f780024622900a5
:10497400841f780099f107000804e800ec875700c9
:10498400e50f540049ff3a0045c0b300c43a220081
:10499400054a780087013700e44f5200bf003a000f
:1049a4000004eb008c3429008bf121007d362900b2
:1049b400881f78008c1f780088f10700ea03200024
:1049c4008ac5b9000a82450064029000841f7800f9
:1049d400881f78008d1f780080f107000a82450047
:1049e400240a9000841f7800881f78005538290015
:1049f400851f780079f107000a824500240290009f
:104a0400841f7800881f7800263a2900861f7800c2
:104a140072f107000a82450074029000841f780036
:104a2400881f7800f43b2900841f78006bf107008d
:104a34000a824500340a9000841f7800881f780099
:104a4400c43d2900841f780064f107000a824500f0
:104a54002f02b10034029000841f7800881f780070
:104a6400943f2900841f78005cf107000a82450006
:104a7400040a9000841f7800881f7800644129008c
:104a8400841f780055f107000a824500440a90000b
:104a9400841f7800881f780034432900841f78001d
:104aa4004ef107000a82450044029000841f7800fa
:104ab400881f780004452900841f780047f1070007
:104ac4000a824500241a9000841f7800881f780009
:104ad400d4462900841f780040f107000a8245006b
:104ae400341a9000841f7800881f7800a448290095
:104af400841f780039f107000a8245004f02b10093
:104b0400941f7800881f7800744a2900841f780055
:104b140032f10700881f7800444c2900841f780074
:104b24002ef107000a82450024129000841f7800a9
:104b3400881f7800344e2900841f780027f107006d
:104b44000a82450064129000841f7800881f780050
:104b540004502900841f780020f107000a824500d0
:104b6400640a9000841f7800881f7800d4512900bb
:104b7400841f780019f107000a824500341290005e
:104b8400841f7800881f7800a4532900841f7800ac
:104b940012f107000a8245002f02b100741290003e
:104ba400841f7800881f780074552900841f7800ba
:104bb4000af107000a824500740a9000841f7800f5
:104bc400881f780044572900841f780003f10700e8
:104bd4000a82450044129000841f7800881f7800e0
:104be40014592900841f7800fcf007000a8245004c
:104bf400041a9000841f7800881f7800e45a290062
:104c0400841f7800f5f007000a8245000412900022
:104c1400841f7800881f7800b45c2900841f780002
:104c2400eef007000a824500441a9000841f7800c1
:104c3400881f7800845e2900841f7800e7f007004d
:104c44000a8245004f02b100541a9000841f780074
:104c5400881f780054602900841f7800dff0070063
:104c64000a8545001a0590008a1f7800881f78007d
:104c740024622900841f7800d8f007000804e800a3
:104c8400ec875700e50f540049ff3a0055c0b300c4
:104c9400c43a2200054a7800c6003700e54f5200a6
:104ca400c4003a0065c0b300c43a2200054a780043
:104cb400c4da2000a4fa880094fc880084fe8800ea
:104cc40074008900640289000004eb008c3429001c
:104cd4008bf121007d362900881f78008c1f780015
:104ce400bef00700ea0320008ac5b9000a82450025
:104cf40064029000841f7800881f78008d1f78005c
:104d0400b6f007000a824500240a9000841f780048
:104d1400881f780057382900871f7800aff00700f4
:104d24000a82450024029000841f7800881f7800be
:104d3400213a2900811f7800a8f007000a82450063
:104d440074029000841f7800881f7800f43b2900c7
:104d5400841f7800a1f007000a824500340a9000fd
:104d6400841f7800881f7800c43d2900841f7800c0
:104d74009af007000a8245002f02b1003402900025
:104d8400841f7800881f7800943f2900841f7800ce
:104d940092f007000a824500040a9000841f7800fc
:104da400881f780064412900841f78008bf0070075
:104db4000a824500440a9000841f7800881f780006
:104dc40034432900841f780084f007000a824500d8
:104dd40044029000841f7800881f7800044529004d
:104de400841f78007df007000a824500241a900091
:104df400841f7800881f7800d4462900841f780017
:104e040076f007000a824500341a9000841f780067
:104e1400881f7800a4482900841f78006ff00700d9
:104e24000a8245004f02b100941f7800881f780061
:104e3400744a2900841f780068f00700881f7800ee
:104e4400444c2900841f780064f007000a8245005e
:104e540024129000841f7800881f7800344e2900a3
:104e6400841f78005df007000a82450064129000f8
:104e7400841f7800881f780004502900841f78005c
:104e840056f007000a824500640a9000841f7800e7
:104e9400881f7800d4512900841f78004ff0070040
:104ea4000a82450034129000841f7800881f78001d
:104eb400a4532900841f780048f007000a824500a3
:104ec4002f02b10074129000841f7800881f7800ac
:104ed40074552900841f780040f007000a824500b9
:104ee400740a9000841f7800881f780044572900b2
:104ef400841f780039f007000a82450044129000ac
:104f0400841f7800881f780014592900841f7800b2
:104f140032f007000a824500041a9000841f7800ca
:104f2400881f7800e45a2900841f78002bf00700ba
:104f34000a82450004129000841f7800881f7800bc
:104f4400b45c2900841f780024f007000a8245001d
:104f5400441a9000841f7800881f7800845e29001a
:104f6400841f78001df007000a8245004f02b1003b
:104f7400541a9000841f7800881f78005460290018
:104f8400841f780015f007000a8545001a05900073
:104f94008a1f7800881f780024622900841f780003
:104fa4000ef007000804e800ec875700e50f5400f2
:104fb40049ff3a00e6cf5400e4033a0015c0b300b9
:104fc400e4c82100054a7800c4ee8000000aeb0022
:104fd400e2350700b4ee800055db8000050a780056
:104fe400a4ee800046db8000060a7800448221009b
:104ff4008043eb0094cf13000c003a00f4c8210066
:10500400144ae800f28747007284570041b821002f
:1050140008000900311c78002801b10026070700a8
:105024005f040700880778000b003700f4c82100ec
:10503400144ae900f28747007284570024c0210013
:1050440008000900341c78002801b1001a07070081
:105054005304070088077800a4ee80001402780047
:1050640074ee880069c0b300b8033700341c8100b3
:1050740045382000850f52000300360030c0b300cd
:105084000c290700b3033700b5ee80000003eb00e2
:10509400950f130005003a00ea0f52000300360092
:1050a40010c0b30003290700aa0337003404070023
:1050b400e14f5000a5033a00c4ee80008003eb00ea
:1050c400948f1300a1033a0004c92100144278000c
:1050d400e64f520085003a00a4ee800014027800e6
:1050e40084ee8800c53a220095427800e6cf52004b
:1050f4004c003200468221008040eb0096cf100025
:1051040024003a00e3cf52000a003a00f5c8210017
:10511400954278000583fb00e503200085b3b900c0
:1051240045f221008502430076ee8000840a530094
:1051340053003700e4cf52000a003a00f5c82100ba
:10514400954278000583fb00e503200085b3b90090
:1051540065f221008502430076ee8000840a530044
:1051640047003700e5cf520049003a00f5c8210056
:10517400954278000583fb00e503200085b3b90060
:1051840085f221008502430076ee8000840a5300f4
:105194003b003700e3cf52000a003a00f5c8210073
:1051a400954278000583fb00e503200085b3b90030
:1051b400c5f321008502430076ee8000840a530083
:1051c4002f003700e4cf52000a003a00f5c821004e
:1051d400954278000583fb00e503200085b3b90000
:1051e400e5f321008502430076ee8000840a530033
:1051f40023003700e5cf520030003a00f5c8210003
:10520400954278000583fb00e503200085b3b900cf
:1052140005f421008502430076ee8000840a5300e1
:1052240017003700458221000043eb00954f13001f
:105234000a003a00f5c82100954278000583fb0076
:10524400e503200085b3b900a5f2210085024300df
:1052540076ee8000840a530009003700f5c8210067
:10526400954278000583fb00e503200085b3b9006f
:1052740025f421008502430076ee8000840a530061
:10528400448221008043eb0094cf13000b003a00ca
:10529400f4c82100144278008482fb00e403200057
:1052a40084aab90085f1210084824200c4ee800002
:1052b400150a780079c0b30024033700f4c821002c
:1052c400144278008482fb00e403200084aab9001d
:1052d40084027800a4f1210084824200c4ee80009c
:1052e400150a780079c0b30018033700e74f52005d
:1052f40016033a00a4ee800041db8000010a780026
:10530400a4ee80001402780074ee88004482210028
:105314008042eb0094cf120009003a00f287470064
:105324007284570066b9210008000900361c780011
:105334002801b100600607008807780008003700dc
:10534400f28747007284570047c121000800090012
:10535400371c78002801b100570607008807780039
:105364008f03070089c0b300f8023700b4ee800051
:105374008000eb00948f100020003a00341c810060
:10538400ea0f52001d00360040c6b300492807004a
:10539400448221008042eb0094cf120009003a00bd
:1053a400f287470072845700a6bb21000800090059
:1053b400361c78002801b1003f06070088077800f2
:1053c40008003700f28747007284570087c3210022
:1053d40008000900371c78002801b10036060700d0
:1053e400880778006e030700a4ee800041db80008c
:1053f400010a7800b9c0b300d40237006003070083
:10540400e14f5000d1023a0004c92100144278004f
:10541400e84f520018003a00448221008042eb0019
:1054240094cf120009003a00f287470072845700b3
:1054340086ba210008000900361c78002801b10052
:105444001d0607008807780008003700f287470028
:105454007284570067c2210008000900371c7800d5
:105464002801b10014060700880778004c030700e0
:1054740099c0b300b5023700e94f5200b3023a00b5
:10548400c43a220014427800e3425200e2cf5200b0
:1054940052003e00458221008040eb0095cf100071
:1054a40027003a00e34f52000b003a00f4c82100f1
:1054b400144278000483fb00e403200084b3b900a1
:1054c400c4f221000402430076ee8000a5ee8000c1
:1054d400150a53005a003700e44f52000b003a00fb
:1054e400f4c82100144278000483fb00e403200084
:1054f40084b3b900e4f221000402430076ee800094
:10550400a5ee8000150a53004d003700e54f520008
:105514004b003a00f4c82100144278000483fb00d5
:10552400e403200084b3b90004f32100040243001f
:1055340076ee8000a5ee8000150a53004000370087
:10554400e34f52000b003a00f4c8210014427800e3
:105554000483fb00e403200084b3b90044f4210075
:105564000402430076ee8000a5ee8000150a530085
:1055740033003700e44f52000b003a00f4c8210016
:10558400144278000483fb00e403200084b3b900d0
:1055940064f421000402430076ee8000a5ee80004e
:1055a400150a530026003700e54f520024003a0044
:1055b400f4c82100144278000483fb00e4032000b3
:1055c40084b3b90084f421000402430076ee800021
:1055d400a5ee8000150a530019003700448221000b
:1055e4008042eb0094cf12000b003a00f4c8210073
:1055f400144278000483fb00e403200084b3b90060
:1056040024f321000402430076ee8000a5ee80001e
:10561400150a53000a003700f4c821001442780028
:105624000483fb00e403200084b3b900a4f4210044
:105634000402430076ee8000a5ee8000150a5300b4
:10564400a4ee800046db8000060a7800a4ee800009
:105654001402780074ee8800a9c0b3003b0237003e
:10566400a4ee80008003eb00948f130003003a0043
:1056740050c6b3008f27070036023700351c81005f
:10568400ea8f5200310236001402780084ee88005a
:1056940075ee800084825200c43a220014427800dd
:1056a40063435200e24f5300ff003e004682210054
:1056b4008040eb0096cf10007b003a00e34f52008d
:1056c40021003a00f4c82100144278000482fb004f
:1056d400e003200080a0b900c6f1210006034000c9
:1056e400050b7800461f2000868f52000900360003
:1056f40066002000110009008682d800e60320001d
:1057040086a3b900c5f4210085034300800b78000b
:1057140005003700e603200086a3b900c5f4210084
:1057240085024300800aeb00e503200085a2b9004e
:1057340086f121008402430095037800251a900025
:10574400870a4200ed003700e44f52004b003a0054
:10575400f4c82100144278000482fb0087f1210080
:10576400e603200086a3b9000680430035009800b4
:1057740000037800261b9000e00f530007003a0056
:10578400e503200085a2b90065032000878242005a
:1057940005024200000aeb00d8003700461f200033
:1057a400868f520019003600ea0320008aa5b9004a
:1057b40088f121000a024400241b90000700200005
:1057c4006602450004024400c5e02f001480420034
:1057d4000100200080b9b9000600b8008100410032
:1057e4008a024400250190001401510003002000a6
:1057f40062ed07000a024400301a9800940278000f
:10580400341b9000050a4300bc003700361f2000fb
:10581400868f5200b9003e00ea0320008aa5b90031
:1058240088f121000a024400241b90000700200094
:105834006602450004024400401f2000140050008a
:105844000100200080b9b9000600b80081004100c1
:105854008a02440025019000140151000300200035
:1058640046ed07000a024400301a98001403780039
:10587400b41a9000050a5300a0003700e54f520007
:10588400a2003a00f4c82100144278000483fb000b
:10589400e403200084b3b90004f2210004024300ad
:1058a400050a780095003700e34f520024003a00bf
:1058b400f4c82100144278000482fb00e0032000b5
:1058c40080a0b90046f3210006034000050b7800d0
:1058d400461f2000868f5200090036006600200013
:1058e400110009008682d800e603200086a3b900cf
:1058f40005f5210085034300800b7800050037007f
:10590400e603200086a3b90005f5210085024300c3
:10591400800aeb00e503200085a2b90085f121008f
:10592400048342001603900084834200c71b900046
:10593400048242000482e800068a43006f003700b4
:10594400e44f52004d003a00f4c82100144278009c
:105954000482fb0087f12100e603200086a3b9003e
:10596400068043007508980000037800461b9000e9
:10597400e00f530007003a00e503200085a2b900b8
:10598400a50320008782420005024200000aeb00c2
:105994005a003700461f2000868f52001a00360036
:1059a400ea0320008aa5b90088f121000a02440014
:1059b400441b9000070020007e02450004024400be
:1059c400c5e02f00148042000100200080b9b90016
:1059d4000600b800810041008a0244006509900075
:1059e4001401510003002000e4ec07000a02440003
:1059f400501a980094029000541b90000482e8000e
:105a0400050a43003d003700361f2000868f5200f0
:105a14003a003e00ea0320008aa5b90088f121007b
:105a24000a024400441b9000070020007e02450047
:105a340004024400401f2000140050000100200014
:105a440080b9b9000600b800810041008a02440010
:105a5400650990001401510003002000c7ec070001
:105a64000a024400501a980014039000d41a9000bb
:105a74000482e800050a530020003700e54f520075
:105a84002b003a00f4c82100144278000483fb0080
:105a9400e403200084b3b90084f32100040243002a
:105aa400050a780015003700448221000043eb000a
:105ab400944f130009003a00f4c8210014427800fe
:105ac4000483fb00e403200084b3b90024f2210022
:105ad40004024300050a780008003700f4c82100d6
:105ae400144278000483fb00e403200084b3b9006b
:105af400a4f3210004024300050a78004482210033
:105b04008043eb0094cf130009003a00f28747006a
:105b140072845700a1bb210008000900311c7800e1
:105b24002801b100640407008807780008003700e2
:105b3400f28747007284570084c3210008000900db
:105b4400341c78002801b1005b0407008807780042
:105b540093010700a4ee800045db8000050a78006d
:105b6400b9c0b300f900370085010700e14f5000c8
:105b7400f6003a0004c9210014427800eb4f5200a9
:105b840018003a00448221000043eb00944f1300b4
:105b940009003a00f287470072845700c7bc21000d
:105ba40008000900371c78002801b10042040700ee
:105bb4008807780008003700f2874700728457008e
:105bc400a1c4210008000900311c78002801b1009b
:105bd400390407008807780071010700c9c0b300c1
:105be400da003700ec4f52001c003a0044822100d6
:105bf40014427800e04f52000b003a00d9c0b300c1
:105c04007481210015c0b30094cf1200cf003a0074
:105c14000001eb008000eb000040eb008e02070067
:105c24005f010700c9003700d9c0b300e14f52003b
:105c3400c6003a006481210016c0b300944f1300db
:105c4400c2003a000001eb008000eb000040eb00d2
:105c54004c02070052010700bc003700c43a22007e
:105c640067c0b30094cf130039003a00d4ee80002b
:105c7400f5a52e00850f520002003e000402e80044
:105c8400d4ee8800448221008040eb0094cf1000c1
:105c940018003a00f4c82100144278008482fb0002
:105ca400e603200086abb90084f12100860342009c
:105cb4006700900097007800a70b90006a034300e8
:105cc4000602420014037800da1df8000080400048
:105cd40087034000869f4300941f7800851f780047
:105ce400f4632900841f7800bcec0700ea8757009e
:105cf40017003700f4c82100144278008482fb00a6
:105d0400e603200086abb90084f12100860342003b
:105d14002710900097009000e71390002602b0002f
:105d24000602420014037800da1df80000804000e7
:105d340087034000869f4300941f7800851f7800e6
:105d440044672900841f7800a4ec0700ea87570001
:105d5400448221008042eb0094cf120038003a00c4
:105d6400c43a220014427800e34f520010003a0073
:105d7400f4c82100144278008482fb00e40320006c
:105d840084aab90085f121000483420066039000cf
:105d940046ee880004834200260b900056ee8800ed
:105da400048242002402900064ee88005b00370005
:105db400e44f520010003a00f4c821001442780065
:105dc4008482fb00e403200084aab90085f1210049
:105dd400048342007603900046ee88000483420068
:105de400360b900056ee8800048242003402900084
:105df40064ee880049003700e54f520047003a003e
:105e0400f4c82100144278008482fb00e4032000db
:105e140084aab90085f1210004834200060b900096
