:10000000080C0400000000002A0D00002A0D00006A
:100010002A0D00002A0D00002A0D00002A0D000004
:100020002A0D00002A0D00002A0D00002A0D0000F4
:100030002A0D00004AEB00002A0D00002A0D0000E6
:100040002A0D00008CEB00009CDF00002A0D000050
:100050002A0D000008DE00002A0D00002A0D000015
:100060002A0D00002A0D00002A0D00002A0D0000B4
:100070002A0D00002A0D00002A0D00002A0D0000A4
:100080002A0D00002A0D00002A0D00002A0D000094
:100090002A0D0000BCD700002A0D00002A0D000028
:1000A000C65600002A0D00002A0D00002A0D00008F
:1000B0002A0D00002A0D00002A0D00002A0D000064
:1000C0002A0D00002A0D00002A0D00002A0D000054
:1000D0002A0D00002A0D00002A0D00002A0D000044
:1000E0002A0D00002A0D00002A0D00002A0D000034
:040310002A0D0000B2
:1010000000000000000000002A0D00002A0D000072
:101010002A0D00002A0D00002A0D00002A0D0000F4
:101020002A0D00002A0D00002A0D00002A0D0000E4
:101030002A0D00004AEB00002A0D00002A0D0000D6
:101040002A0D00008CEB00009CDF00002A0D000040
:101050002A0D000008DE00002A0D00002A0D000005
:101060002A0D00002A0D00002A0D00002A0D0000A4
:101070002A0D00002A0D00002A0D00002A0D000094
:101080002A0D00002A0D00002A0D00002A0D000084
:101090002A0D0000BCD700002A0D00002A0D000018
:1010A000C65600002A0D00002A0D00002A0D00007F
:1010B0002A0D00002A0D00002A0D00002A0D000054
:1010C0002A0D00002A0D00002A0D00002A0D000044
:1010D0002A0D00002A0D00002A0D00002A0D000034
:1010E0002A0D00002A0D00002A0D00002A0D000024
:041310002A0D0000A2
:041800000E100000C6
:10181000CF8622000EFF22000E018800000000008B
:10182000000020000000E000020032000001200063
:10183000200288000C000700409C2D0001002000C1
:101840000F000700000020000000E000020032004E
:1018500000000200000000002CBA0200000000009E
:101860000040DA000000FE00200020000000E00040
:1018700002003200100020009001880000000600E5
:10188000A1028800800078000000EB001A003700F9
:10189000E280400054A0B4009101BA00E280400010
:1018A00054A0B4009102BA00E280400054A0B400F9
:1018B0000002EB00472BDE00F507B200A60188000E
:1018C000602CE10008003A000049EB000201E8004A
:1018D000020039003420EC0002F0A0008301E9008E
:1018E000F9FF3E00040037006128E10001003200EA
:1018F0000082EB00040007001101BA000200E000C2
:10190000E3FF3A000000060004D0A300E20F490004
:101910001C003900810278003549BA000201E80054
:10192000020039003420EC0002F0A0008301E9003D
:101930000F0032002549BA000201E8000200390018
:101940003420EC0002F0A0008301E900080032001E
:101950000400E0000600320015C9BA000201E800E8
:10196000020039003420EC0002F0A0008301E900FD
:101970008180E80054A0B4000300E000E2FF3A00D8
:10198000000006009102BA00055978008301E900C1
:10199000F7FF3200C82ADE00055978008301E9000C
:1019A000F3FF32000400E000F1FF320011D9BA0069
:1019B000EEFF370008EA04000000000026B0040033
:1019C0000000000032B00400000000003EB004003F
:1019D000000000005AB004000000000062B00400E3
:1019E000000000006EB00400000000007AB00400A7
:1019F0000000000086B004000000000092B0040067
:101A0000000000009EB0040000000000AAB0040026
:101A100000000000B2B0040000000000BEB00400EE
:101A200000000000DAB004000000000016B104005D
:101A30000000000022B10400000000002EB10400EC
:101A40000000000036B10400000000003EB10400B8
:101A5000000000000040DA000000FE0003F0A200D9
:101A6000889FBE008A9FBE008C1F78001D01070062
:101A7000240133006450E1004F0032006420E10093
:101A80005200320003826C0007003B000905D000C1
:101A90000306D000820F54000C065D0002003900DE
:101AA0000200320089017800030678008582550023
:101AB00004003D000003FD008103FD008502EA00F3
:101AC0008B854200840F720002003B006000100012
:101AD000E08018006011B8000005EB007A28E100F2
:101AE0000A00390006007800C75DDD00F707B20084
:101AF000878075002D003700828171000A0178000F
:101B0000610560008180D1000080D3008502E9007A
:101B1000F9FF3B00060440008784480002003B00B8
:101B200060041400E0841C000988A3000700320050
:101B30008A81710082817100610164008904D10091
:101B40000884D3008B05E800170037000978A3004C
:101B500013003A000B00E000130034008B05E9008D
:101B60000804440089844C000A4474000978A300E6
:101B70000D003A000B00E000070034008B05E9007F
:101B80000804440089844C0001003A000B00200046
:101B90000978A300F7FF32000001EB0002003700D4
:101BA000828171000A017800930007000CF0A70001
:101BB00001F0A000DC0037006420E10002003A00E0
:101BC000838F6C00DC0033000801BE000200BE0001
:101BD000D5003700889FBE008A9FBE008C1F78000A
:101BE000C0000700C700330003866C006450E100AA
:101BF0002E0032006420E100330032006150E10029
:101C00002F0032006120E10031003200858555004F
:101C1000EB07B00009002000080420000500370091
:101C20000804440089844C000A0031000603430084
:101C300087834B000001530081815B00F8FF330074
:101C40000203BE000800A0000804440089844C0080
:101C5000F6FF3900C639DD00830173000100320050
:101C6000130020008904D1000884D3000998A30040
:101C7000050032000800A7000300A0008904D1007D
:101C80000884D3008B05E8008904D1000884D300C0
:101C90000001EB000281D2005700070001F0A10013
:101CA0000CF0A70001F0A0009F0037006420E100C5
:101CB000A10032000801BE000200BE00F7FF37009D
:101CC0006120E1009C0032006000B800F3FF3700A3
:101CD0000000200001F82700F0FF3700140020006A
:101CE00043013700F4FF2F00410137000001BE001F
:101CF000670007000470A70003F0A1006509B100A8
:101D0000160032000D0035006828E100060035009D
:101D1000F0FF2F00F1FF27000300E00013003B005D
:101D200001002800000005000000400081804800FC
:101D30008502E900FCFF3A0008003700F88F4200F6
:101D400002003C008000EB00000005008100D10093
:101D50000080D3008502E800FCFF3A000300E000A9
:101D600002003B0060001000E08018000000060048
:101D70000001BE00460007000470A70003F0A100A8
:101D800003F8A30013003A006509B1001000320007
:101D9000090035006928E100020035000100280033
:101DA0000000050000004000818048008502E90035
:101DB000FCFF3A0000000600F88F420005003500E5
:101DC0008100D1000080D3008502E800FCFF3A00CA
:101DD000000006008000EB00000005004F89DE00D7
:101DE000820178001D0137006011B8002B01370017
:101DF00004002000FE0037008100200061805500B3
:101E00000B003D000B00200061FE2F000100E100EF
:101E10001D00340082817100610164008904D100D9
:101E20000884D3000000E800FAFF3A0071002000A7
:101E300061006400030070000200600009003200CD
:101E400061044400E0844C000988A50005003200CC
:101E50008B05E8006808E10002003A008904D1001F
:101E60000884D300F20F20000258E10005003D0075
:101E7000C75DDD00F907B2008980750008007800B1
:101E8000000006000BF827008B007800000005001A
:101E9000C70ADE00F107B200F50FB20008003200F9
:101EA000E1CF4200020032000170A00024000500D2
:101EB000810F700001003200040805004400050095
:101EC000810F700002003A00140005008502E9004D
:101ED0000000400081C04800FCFF3B000170A000F2
:101EE000240005000004BE00E9FF07000003BE0057
:101EF0000405BE000200BE00E5FF0700844F750028
:101F0000000006000200BE006450E100050036003B
:101F10006420E100020036000968A30001003A00D5
:101F20000800BE000160A0004F0678004F05BE000B
:101F30004F04BE0000000600F0FF2F00F1FF270055
:101F4000F9FF3700889FBE008A9FBE008C9FBE00AD
:101F50009A000700850478000005BE006420E100B7
:101F600049003E006220E100030032000900350014
:101F70000BF8A300440032000BF8A3000800320065
:101F80001002200000808800F0FF2F00F1FF2700E2
:101F90003D00370001F82F00000020003A00370014
:101FA0003D000700ADFE07000006BE000A00BE00AF
:101FB000324F200053F323004AFF0700060034008D
:101FC0000C00BE0034000700A4FE07000006BE009F
:101FD0000A00BE00020037008904E9000C00BE00C0
:101FE0002D0007002E0007002B0007009CFE0700B5
:101FF0000001BE000C00BE00F6FE07000005BE009A
:102000000001BE00260007000006BE00A2F3230068
:10201000430D2C0092FE0700809FBE000C00BE0006
:10202000D2E32700D3F02B001D0007004F01BE00B4
:10203000E8FE07000006BE000A01BE001800070007
:102040000A01BE0086FE07000006BE006148B90016
:1020500062FF07000005BE0032082800E3952B0050
:102060000F0007000C01BE007DFE07000006BE0049
:102070000A00BE000200280013F323000800070036
:102080000C01BE0076FE07004F06BE004F05BE00E5
:102090004F04BE000000060003F02300020005000C
:1020A000889FBE008A9FBE008C1F78008DFF0700AE
:1020B00094FF330003866C006450E100240032007A
:1020C0006420E100270032006150E100220032006C
:1020D0006120E100210032008B854200EB07B10056
:1020E0000134B800003AB8000804420089844A006C
:1020F000013AB8000030B8008880400009014A0069
:1021000004003300000040008180480002014900C3
:102110008B05E900C909DD00830170000100320070
:1021200013002000C814DE004814DD004709DE005B
:102130001200B200C808DE00088470002EFF0700FD
:1021400001F0A1000CF0A70001F0A00076FF37001D
:102150006120E10078FF32000801BE000200BE00ED
:10216000F7FF37006150E100FCFF3A0072FF3700D3
:102170006022B800060220000000D0008180D2005A
:102180000482D2008582D2000000A0000202520028
:1021900083825A00030031000202420083824A0017
:1021A0000000A1000603E900F3FF3A00000006006A
:1021B000EFFF07000400BE00000006000003BE00A1
:1021C00033FF07006220E100020032000600BE007B
:1021D00005000500E507B100F107B20004F0230097
:1021E0008480700007F0A70001F0A0002400050023
:1021F000889FBE008A9FBE00841F780039FF0700B9
:102200004F00780011003300F0FF2F00838F6C0027
:1022100006003B00040565000A00A700080037001F
:1022200009F0A6001000200008003700820F5400BB
:10223000838F5C00030039001000200001003E0085
:102240000000200009F0A7000000EA004F05BE00D2
:102250004F04BE000000E00000000600881F780068
:10226000030478000300E00007003D006000100058
:10227000E080180060011900E081190002003B00B5
:1022800001F02D00030037000400070008F0A7004C
:1022900001F0A0004F04780000000600889FBE00F7
:1022A0008A9FBE00008270000402710004827100E7
:1022B000260032000004BE000200BE006011B8001B
:1022C0006B092000950220000182CF000A0039002E
:1022D0000541B1000082CF00070039000541B1007F
:1022E0000982CF00040039000541B1000882CF0007
:1022F000010039000541B1000542520012003200D0
:102300000A003B0082817100610164008100D100FC
:102310000080D3008984D3000884D3008B05E800B3
:102320000442E800F7FF3A000700370008044400C1
:1023300089844C0000004800818048008B05E9003A
:102340000442E900F9FF3A00ABFE07004F05BE006A
:102350004F04BE00000006000400FA006061220085
:1023600010407800E14F5000C20036000000EB0042
:10237000000F78003E0037009E00E8004005200076
:102380008088B900E10320008080400000F0210037
:1023900000804000900078001E0178004005200079
:1023A0008090B900E20320000001410000F021000C
:1023B0000000410010007800808F500013003900A9
:1023C0009E00E800400520008088B900E10320005D
:1023D0008080400000F021000080400090007800E4
:1023E0001E017800400520008090B900E203200023
:1023F0000001410000F021000000410010007800C1
:102400000080500010079800020037000000EB0029
:1024100010079800B03281008000D1001E009000AB
:10242000808F5000110036001E01E8009E00E80079
:10243000400520008088B900E10320008080400032
:1024400000F021000080400090007800B032810050
:102450000000D10080804000400520008091B9003C
:10246000E0F3210000004100010878001E0FE800A1
:102470001E007800E30F5000BFFF36001000200060
:10248000000F7800390037009E00780040052000DA
:102490008088B900E10320008080400000F0210026
:1024A00000804000900078001E01E90040052000F7
:1024B0008090B900E20320000001410000F02100FB
:1024C00000004100100078000080500010079800C4
:1024D0009E009000300020000001780011000900EB
:1024E0008280D800100798009E00E9004005200077
:1024F0008088B900E10320008080400000F02100C6
:1025000000804000900078001E0090008080400015
:102510001E017800400520008091B900A0F4210040
:1025200000004100010878009E007800400520006E
:102530008088B9008000780020F1210000804000F0
:102540008000EB00010878009E0078004005200024
:102550008088B90080007800A0F121000080400050
:102560008000EB00010878001E0FE8001E007800D4
:10257000E40F5000C4FF36000000EB00000F7800AD
:10258000390037009E00E800400520008088B9002F
:10259000E10320008080400000F021000080400026
:1025A000900078001E017800400520008090B9005E
:1025B000E20320000001410000F021000000410082
:1025C0001000780000805000100798009E009000D6
:1025D0003000200000017800110009008280D8003E
:1025E000100798009E00E800400520008088B90090
:1025F000E10320008080400000F0210000804000C6
:10260000900078001E009000808050001E0178002D
:10261000400520008091B90020F521000000410014
:10262000010878009E007800400520008088B900ED
:1026300080007800A0F22100008040008000EB00C4
:10264000010878009E007800400520008088B900CD
:102650008000780020F32100008040008000EB0023
:10266000010878001E0FE8001E007800E30F5000FC
:10267000C4FF36000080FA00000006000000FA00E7
:102680004B210700F0772200104078008040E800DE
:10269000F077220001487800007822008040EB00AB
:1026A00001487800807822008040EB0001487800E3
:1026B000907822008040EB0001487800F0AF2100C4
:1026C0008040EB0001487800E085220031C0B30073
:1026D00001487800A078220041C0B300014878008A
:1026E000006022008040EB0001487800C0792200A1
:1026F0008040EB00014878000000EB00D03C8900EE
:10270000A07B22008040EB0001487800907B2200F3
:102710008040EB0001487800107D220010407800D6
:102720000004E0000F003A006061220010407800D1
:10273000E14F50000B003600C0328100F0F98800F4
:10274000D032810090FC8800E032810030FF8800A8
:10275000F0328100D00189000033810070048900CB
:10276000FDFE07000080FA00000006000200FA00EB
:102770000040EB00004F7800E08522001040780018
:10278000E64F500003003200C07922008040EB0089
:1027900001487800C0792200104F7800C0792200EB
:1027A000104078000080FB00EB0F50005C0032000E
:1027B000EB0F500005003C000000E0000A00320072
:1027C000EA0F50001800320062003700ED0F500091
:1027D00055003200ED0F500022003500EE0F500082
:1027E000410032005B003700E08522001040780095
:1027F000E64F50004E003A000000EB00D03C89004C
:102800004086220010407800E14F500003003A005B
:10281000A0C0B300004F78004E003700C0C0B30026
:10282000004F78004B003700D13C8100703E200003
:10283000808F50004000360000C1B300AE3C07005E
:10284000408622008040EB0001487800E0772200BB
:1028500011C0B30001487800B0C0B300004F780049
:102860003C003700107D2200104078000004E0009A
:102870000C003200D13C8100F0762100808F5000A6
:102880002F00360010C1B3009B3C070000602200FF
:1028900011C0B30001487800D0C0B300004F7800E9
:1028A0002C00370071F68000D03C8100808F5000F2
:1028B00025003E0050C2B3008F3C0700A07B2200E1
:1028C00011C0B30001487800607822001040780001
:1028D0008040E8006078220001487800E0C0B30042
:1028E000004F78001B003700A07B220010407800CA
:1028F0000004E00016003A007078220010407800D2
:102900008040E80070782200014878000000EB0069
:10291000D03C8900C0C0B300004F78000D003700E4
:10292000000000000B003700000000000900370025
:10293000000000000700370000000000050037001D
:102940000000000003003700000000000100370015
:1029500000000000C07922001E4878000080FA00C4
:10296000000006000E00FA00889FBE008A1F780053
:10297000A078220090407800214798007BFF070054
:10298000A078220010407800E54F50001600360075
:10299000A07822009040780030C3B30080CF500070
:1029A00011003E00C13C8100400120000001780080
:1029B000110009008280D800000F7800C03C81001F
:1029C0009E00400010068100808F500006003100FC
:1029D00050C2B300614E0700A07822008040EB0097
:1029E0000148780077143700A07822001040780062
:1029F0000080FB00CF80DE00520320000300200097
:102A0000820F5000838F58006B143E0000060100B7
:102A100035003700380037004700370055003700D1
:102A20005A003700A0003700860037009A003700B0
:102A3000611437006409370063093700320C37002E
:102A4000310C3700400E370046133700451337006E
:102A500059143700581437007404370073043700D2
:102A600085053700840537008305370012063700D7
:102A700011063700350737004F143700200937009B
:102A8000C1023700E4023700310337006703370023
:102A90008E033700AC033700B9033700CE0337008D
:102AA000DF03370044143700431437004214370063
:102AB0004114370040143700FC0337007D02370013
:102AC0008D023700A202370020043700300437009F
:102AD000450437002B023700500237003614370008
:102AE00087133700A7133700807822008040EB005F
:102AF000014878003014370040D8800051D8800059
:102B00009BFC07000000780041062000592E0700BA
:102B100040D8800051D8800095FC07000000780064
:102B200041062000912E0700AE2D070020C0B30003
:102B300020479800201437003F2D0700E14F500038
:102B4000B0133A00F287470072805700C3B62100E5
:102B500008000900331878002001B1007331070024
:102B6000F28757009F2D070030C0B3002047980020
:102B700011143700302D0700E14F5000A3133A0025
:102B80000040EB00204798000B1437002A2D070067
:102B9000E14F50009F133A0070C0B300D63B0700CE
:102BA00000B02100903C890020B02100A03C8900A9
:102BB00040B02100B03C8900F28747007280570086
:102BC000A4DC210008000900341878002001B100BD
:102BD00056310700F2875700822D0700F1ED800083
:102BE000E0ED8000823E20008D680700F0AF2100FC
:102BF0008040EB0001487800907822008040EB0094
:102C000001487800B03C8100917822009140780022
:102C10000181FB00410520008191B900820078000C
:102C2000C20320000101410001F0210081004100A8
:102C3000910078000108780050C0B3002047980048
:102C4000DD133700FC2C0700E14F500073133A00EE
:102C5000E07722008040EB000148780040D88000F7
:102C600051D8800042FC0700000078004106200097
:102C7000002E070040D8800051D880003CFC07009F
:102C80000000780041062000382E070070C0B30015
:102C900020479800C8133700CE1307000040EB0010
:102CA00020479800C4133700807822008040EB0052
:102CB00001487800C0ED21008040EB000148780019
:102CC000007D2200104078000004E00055133A0017
:102CD00060B0210010407800E34F50000B0032003C
:102CE000E077220010407800E14F500007003A00E2
:102CF000E07722008040EB0001487800A0782200B5
:102D000061C0B30001487800AE133700CA2C070039
:102D1000E14F500031003A009078220010407800D6
:102D20000004E0002D003A0000602200104078000E
:102D3000E14F500029003A00E08522001040780061
:102D4000E64F500025003A00006022008040EB0072
:102D500001487800107D2200104078000004E00057
:102D60001601320060B0210010407800E34F50009F
:102D700012003A0020DA80000000E00003003A0070
:102D800030DA80000000E00004003200E07722002A
:102D900011C0B300014878000801370020C1B3001A
:102DA000553B0700E085220031C0B30001487800A0
:102DB00040C0B300204798000001370020C1B30095
:102DC0004D3B0700E085220031C0B3000148780088
:102DD00040C0B30020479800F8003700962C070049
:102DE000E14F500047003A00E08522001040780093
:102DF000E64F500043003A00A082220010407800C5
:102E0000E14F50003F003A006086220010407800F9
:102E10000004E0003B003A00000C22001040780063
:102E20000004E00037003A0090782200104078005B
:102E30000004E00004003A00808222001040780084
:102E4000E14F50000C0032009078220010407800D2
:102E50000004E000D600320090822200104078008A
:102E6000E14F5000040032008082220010407800C0
:102E7000E14F5000D0003A00908222008040EB00E9
:102E800001487800808222008040EB0001487800F1
:102E9000F0AF2100104078000004E0000F003A007D
:102EA00090782200104078008080FB006061220052
:102EB000104078000080FB000000E900808F500087
:102EC00003003A00F0AF210011C0B30001487800C0
:102ED00090C0B30020479800B800370090782200D7
:102EE000104078000004E00003003A00F0AF210039
:102EF0008040EB000148780090C0B3002047980064
:102F0000AE003700B03C8100100078000000E00007
:102F1000AA003A00482C0700E14F5000A7003A00F1
:102F2000F0AF2100104078000004E00029003A00D2
:102F300090782200104078008080FB0060612200C1
:102F4000104078000080FB000000E900808F5000F6
:102F500019003A00F0AF210011C0B3000148780019
:102F60006061220010407800E24F50000E003600F1
:102F7000B03C810091782200914078000181FB00F3
:102F8000410520008191B90082007800C203200031
:102F90000101410001F02100810041009100780011
:102FA0000108780085003700B03C81008000EB000C
:102FB0000108780081003700608622001040780008
:102FC0000004E0007D003A0090C0B3002047980064
:102FD0007A00370090782200104078000004E0006A
:102FE0006C003A00000C2200104078000004E00061
:102FF00072003A0060862200104078000004E00071
:103000006E003A00F0AF21008040EB0001487800EC
:103010006061220010407800E24F50000E00360040
:10302000B03C810091782200914078000181FB0042
:10303000410520008191B90082007800C203200080
:103040000101410001F02100810041009100780060
:103050000108780003003700B03C81008000EB00DD
:1030600001087800E085220010407800E34F50000E
:1030700006003A0080C0B3009F3A0700E0852200B6
:1030800041C0B300014878004C003700E0852200C1
:1030900010407800E44F500006003A0090C0B300A2
:1030A000953A0700E085220051C0B300014878003E
:1030B00042003700E085220010407800E54F5000C4
:1030C0003E003A00A0C0B3008B3A0700E085220022
:1030D00061C0B300014878000000EB00000F7800E9
:1030E000090037009E007800400520008088B90064
:1030F00080007800C0F3210000804000C1DA200089
:10310000010878001E0FE8001E007800E40F500050
:10311000F4FF3600907B2200104078000004E000AD
:1031200017003200907B22008040EB0001487800BD
:10313000F0F98000C032890090FC8000D032890014
:1031400030FF8000E0328900D0018100F032890038
:10315000700481000033890050C0B300BA590700E1
:1031600060C0B300B859070070C0B300B65907007B
:1031700080C0B300B459070090C0B300B259070033
:1031800020DA800070D7880030DA800080D788008D
:103190000A00370060862200104078000004E0003A
:1031A00006003A0090C0B3002047980003003700A3
:1031B0000000000001003700000000002E409000D9
:1031C000E94F500019123A006E2B070010068100DB
:1031D000C03C8900B07B22008040EB0001487800B1
:1031E000807B22008040EB000148780006690700E0
:1031F0008078220011C0B30001487800107D2200C1
:10320000104078000004E00007003200B03C81006C
:103210008000EB0001087800903C810001EE800006
:10322000010878000A00370020C1B3002047980049
:10323000913C810000EE8000000040008008780092
:10324000B03C8100017D200001087800EE68070095
:1032500060680700A03C810011EE80000108780042
:10326000F0AF2100104078000004E00021003A0097
:1032700090782200104078008040E800907822008A
:1032800001487800F287470072805700C1DD2100B5
:1032900008000900311878002001B100A32F0700B1
:1032A000F2875700CF2B070090782200104078005B
:1032B0000081FB0090782200104078008080FB00A5
:1032C000400520008088B900E10320008080400094
:1032D00000F02100008040009000780040052000B0
:1032E0008091B90000F4210000004100010878003D
:1032F0002000370090782200104078008040E900DC
:103300009078220001487800F287470072805700C9
:10331000A2E5210008000900321878002001B10060
:10332000822F0700F2875700AE2B0700907822000B
:10333000104078000081FB00907822001040780057
:103340008080FB00400520008088B900E103200058
:103350008080400000F02100008040009000780054
:10336000400520008091B90020F4210000004100B8
:1033700001087800903C810010007800603C8900D2
:103380000D123700E0F28000F1F2800078FA0700B9
:1033900080047800A0E5210010447800E0F280006D
:1033A000F1F2800072FA070080007800A0E52100A9
:1033B0001040780044062000890178000841780018
:1033C000322E070020F3800031F3800068FA0700F6
:1033D0008004780030E621001044780020F380005B
:1033E00031F3800062FA07008000780030E62100A7
:1033F00010407800440620008901780008417800D8
:10340000DA2E0700772B07000000EB00A03D8900B3
:1034100020C3B30020479800E7113700062B0700B0
:10342000E14F500083113A00A03D81000000E00010
:1034300006003A0010002000A03D8900B03C810049
:10344000810C200001087800DB113700A03D8100CD
:10345000E10F500079113A00B03C81001000780073
:103460000000E00077113A0040D8800051D8800079
:103470003FFA07000000780041062000FD2B0700FE
:1034800040D8800051D8800039FA07000000780049
:1034900041062000352C0700522B0700B0C1B300B5
:1034A000AE4B0700A07822008040EB000148780076
:1034B000C4113700455D07000004E00063113200CD
:1034C000475D0700B2C0B30011C0B300E066210041
:1034D0001767070011C0B300E06621004F670700BF
:1034E000E06621006E6707003E5E0700C0C2B300C1
:1034F00020479800B0113700255D07000004E00068
:10350000541132002C5D0700E24F50000D003A00CC
:10351000B2C0B3008040EB00E06621000467070002
:1035200011C0B300E06621003C670700E06621009F
:103530005B6707002B5E0700D0C2B30020479800EE
:103540009D11370030C1B300844B07009D11370037
:103550000F5D07000004E00040113200265D070007
:10356000155D0700E24F500004003A00266807008E
:10357000C0C1B300204798008F11370030C1B3009D
:10358000764B07008F11370050DA800061DA800037
:10359000F7F907008004780080B421001044780017
:1035A00050DA800061DA8000F1F9070080007800CD
:1035B00080B42100104078000002EB0089017800FF
:1035C00008417800B12D070090DA8000A1DA800070
:1035D000E7F907008004780010B521001044780056
:1035E00090DA8000A1DA8000E1F90700800078001D
:1035F00010B52100104078000002EB00890178002E
:1036000008417800592E0700F62A0700D0C1B30000
:103610002047980068113700872A0700E14F5000C3
:1036200010113A000000EB00A03D8900903C8100A1
:1036300081A9230001087800A03C8100017D2000C1
:103640000108780070B0210010407800E44F50006D
:1036500013003A00207D2200104078000004E000B2
:1036600038003200107D2200104078000004E00095
:1036700034003A0060D8800071D880000200200039
:103680000308240053F90700B9F907008000780007
:1036900060EC210010407800A22A070029003700C2
:1036A00070B0210010407800E34F500013003A0042
:1036B000207D2200104078000004E000210032004C
:1036C000107D2200104078000004E0001D003A0048
:1036D00060D8800071D8800002002000030424001C
:1036E0003CF90700A2F907008000780060EC210097
:1036F000104078008B2A070012003700207D22003E
:10370000104078000004E0000E003200107D22001E
:10371000104078000004E0000A003A0060D8800001
:1037200071D88000020020000300240029F907005E
:103730008FF907008000780060EC210010407800CD
:10374000782A0700E0C1B300204798001A1137001B
:10375000392A0700E14F5000C4103A00903C810024
:10376000100078000000E00006003A0090C1B300AD
:10377000FA4A0700A07822008040EB000148780058
:1037800010113700A03C8100100078000000E0001C
:10379000B8103A00A03C8100813E2000010878006A
:1037A000A0670700803D8900A2670700903D89005F
:1037B000803D8100E90F500014003E00903D8100E3
:1037C000E90F500011003E00A03D81000000E8001C
:1037D000A03D8900A03D8100E20F50000B003600A3
:1037E000F287470072805700A3D12100080009002A
:1037F000331878002001B1004C2E0700F2875700E3
:10380000782A0700F0C1B300204798000000EB00C1
:10381000803D89000000EB00903D89007A67070039
:103820000071220095670700E3103700022A0700A5
:10383000E14F500091103A0073670700E0DA800012
:10384000F1DA80004AF9070080047800A0B5210071
:1038500010447800E0DA8000F1DA800044F90700D3
:1038600080007800A0B521001040780044062000B8
:103870008901780008417800042D070020DB8000D2
:1038800031DB80003AF907008004780030B621006F
:103890001044780020DB800031DB800034F9070021
:1038A0008000780030B621001040780044062000E7
:1038B0008901780008417800AC2D0700492A0700EB
:1038C00000C2B30020479800BB103700DA29070078
:1038D000E14F50006B103A0060D8800071D8800032
:1038E0000200200003002400BAF8070020F90700B6
:1038F0008000780060EC210010407800212A070049
:1039000070B0210010407800E34F50000B003A00E7
:10391000E0DA8000F1DA80003233230033F923004B
:10392000DFF9070012F907008000780060EC210041
:103930001040780000404000FA29070010C2B30090
:10394000204798009C103700BB290700E14F50002A
:103950004E103A0037670700A1328100810F5000F6
:103960004C103A00C0ED210011C0B30001487800AE
:10397000BB29070020C2B300204798008E103700F3
:10398000AD290700E14F500044103A00C0ED21007E
:103990008040EB00014878000041EB00E179220013
:1039A00020EA2100012D0700F287470072805700AE
:1039B000E479220008000900341878002001B100E1
:1039C000DA2D0700F2875700062A070030C2B3003D
:1039D000204798007810370097290700E14F5000E2
:1039E00030103A00E085220010407800E34F50008C
:1039F00008003A000000EB00A03D8900B03C8100C7
:103A0000C1DA20000108780040C2B30020479800C6
:103A100069103700A0C2B300204798006610370035
:103A2000B03C8100100078000000E00015003A0072
:103A3000A03D8100E10F50000F003A000B67070026
:103A4000F1702200810F500005003E00076707005B
:103A50000171220000805000A0328900020037006E
:103A60000000EB00A032890030C0B3007657070099
:103A70000000EB00A03D8900A0C2B30020479800E1
:103A80004D10370020802200104078000004E00034
:103A900006103200B03C8100C1DA20000108780035
:103AA00010002000A03D8900431037006229070064
:103AB000E14F5000FF0F3A00606122001040780093
:103AC0000080FB008000E900400520008088B900EC
:103AD000E10320008080400000F0210000804000D1
:103AE00010007800DB66070060612200104078005B
:103AF0000080FB008000E900400520008088B900BC
:103B0000E10320008080400000F0210000804000A0
:103B100010007800D9660700BB660700D03C810022
:103B20000000E800D03C8900103C8100213C81006D
:103B300061004000E0804800103C8900213C890081
:103B4000E0C2B300204798001B1037009F5B0700BE
:103B50000004E000D90F3200A15B0700B2C0B3003F
:103B600011C0B300E0662100716507008040EB00E2
:103B7000E0662100A9650700E0662100C86507002E
:103B8000985C0700F0C2B300204798000A10370085
:103B90007F5B07000004E000CA0F3200865B07006D
:103BA000E24F50000D003A00B2C0B3008040EB007D
:103BB000E06621005E6507008040EB00E0662100C2
:103BC00096650700E0662100B5650700855C070083
:103BD00000C3B30020479800F70F370030C1B3008F
:103BE000DE490700F70F3700695B07000004E000BB
:103BF000B60F3200805B07006F5B0700E24F50009A
:103C000007003A00B03C8100813E200001087800A6
:103C10007D66070050C0B30020479800E60F3700CC
:103C200030C1B300CD490700E60F3700903C81005A
:103C3000100078000000E00032003A009078220086
:103C4000104078008080FB00606122001040780006
:103C50000080FB000000E900808F500023003A0044
:103C6000786607008000EB005FF807000004BE00E4
:103C700090782200104078008080FB0040052000F2
:103C80008088B900E10320008080400000F021001E
:103C900000804000100078008000EB0052F8070020
:103CA000A299290093F52300FDF807001AC0B3007C
:103CB0000001BE000800BE000AF807000000E00096
:103CC00001003C000045EB000A04E0000700320060
:103CD000A0782200104078000080FB00703089003E
:103CE00010C3B300204798000600370090C1B3000E
:103CF0009A490700A07822008040EB000148780034
:103D0000B00F3700B03C8100100078000000E000E8
:103D100060003A00B03C8100813E2000010878003C
:103D200040660700803D890042660700903D89009B
:103D3000803D81000000E00019003200903D8100CC
:103D40000000E00016003200903D81008000D100AC
:103D5000803D8100808F500011003E00903D810029
:103D60000000400080007800803D8100808F50007E
:103D70000B003900803D81008000D100903D810022
:103D8000808F500006003E00803D81000000400012
:103D900080007800903D8100808F50003700310016
:103DA00090782200104078008080FB006061220043
:103DB000104078000080FB000000E900808F500078
:103DC00024003A001F6607008000EB0006F8070099
:103DD0000004BE0090782200104078008080FB0034
:103DE000400520008088B900E10320008080400069
:103DF00000F0210000804000100078008000EB00FF
:103E0000F9F70700A299290093F52300A4F8070009
:103E10001AC0B3000001BE000800BE00B1F70700E1
:103E20000000E00001003C000045EB000A04E00057
:103E300008003200A0782200104078000080FB00CB
:103E40007030890010C3B3002047980000000000C4
:103E5000590F3700A0C1B30040490700A0782200E5
:103E6000104078000080FB0060308900A0782200BC
:103E70008040EB0001487800520F37000000EB0053
:103E8000803D89000000EB00903D8900DE65070061
:103E9000490F3700F0AF2100104078000004E00027
:103EA0003A003A00E76507009178220091407800D7
:103EB0000181FB00410520008191B900820078005A
:103EC000A20420000101410001F021008100410015
:103ED00091007800810F5000FE0E3900913C810066
:103EE00000EE8000000040008008780090782200FA
:103EF000104078000081FB0090782200104078008C
:103F00008080FB00400520008088B900E10320008C
:103F10008080400000F02100008040009000780088
:103F200090782200104078008081FB00400520003E
:103F30008098B900FA01400000F0210000804100A3
:103F40001000780080805000400520008091B9006A
:103F500000F421000000410001087800F2874700CA
:103F600072805700E1DE2100080009003118780056
:103F70002001B1006D2C0700F28757009928070037
:103F800040C1B300204798000B0F3700AD65070014
:103F900091782200914078000181FB0041052000CA
:103FA0008191B900820078002205200001014100C2
:103FB00001F021008100410091007800810F500044
:103FC000C60E3E00913C810000EE800000004000E3
:103FD0008008780090782200104078000081FB0073
:103FE00090782200104078008080FB00400520007F
:103FF0008088B900E10320008080400000F02100AB
:1040000000804000900078009078220010407800F6
:104010008081FB00400520008098B9002303200028
:104020008081410000F021000080410010007800F4
:1040300080804000400520008091B90020F42100DC
:104040000000410001087800F287470072805700A5
:10405000C2E6210008000900321878002001B100F2
:10406000322C0700F28757005E28070040C1B300DA
:1040700020479800D00E3700EF270700E14F50008F
:10408000980E3A00A078220010407800F44F5000BB
:104090001A003A00F0AF2100104078000004E00060
:1040A0000A003A00F28747007280570003E02100BF
:1040B00008000900331878002001B1001B2C07000C
:1040C000F28757004728070009003700F2874700AA
:1040D00072805700E4E721000800090034187800D6
:1040E0002001B100112C0700F28757003D2807007E
:1040F00050C1B30020479800AF0E3700A0782200CF
:1041000010407800F54F500045003A00F0AF210014
:10411000104078000004E00020003A00907822006F
:10412000104078000084FB0046650700917822006B
:10413000914078000181FB00410520008191B90088
:1041400082007800A20420000101410001F021005A
:10415000810041009100780081005000400520005E
:1041600080C1B90020F12100000041000108780061
:1041700060D8800071D88000020020000300240075
:1041800094F60700FAF607008000780060EC210042
:1041900010407800E32707001E00370090782200C7
:1041A000104078000084FB009078220010407800D6
:1041B0008080FB00400520008088B9002105200098
:1041C0008080400000F021000080400090047800D2
:1041D0001C650700808054004005200080C1B900A4
:1041E000A0F22100000041000108780060D88000A2
:1041F00071D88000020020000300240075F607003B
:10420000DBF607008000780060EC210010407800A9
:10421000DC27070060C1B30020479800660E370016
:10422000F0AF2100104078000004E0000C003A00DC
:1042300090782200104078008080FB00400520002C
:104240008088B900010420008080400000F0210037
:104250000080400010007800B03D89000B0037005E
:1042600090782200104078008080FB0040052000FC
:104270008088B900210420008080400000F02100E7
:104280000080400010007800B03D8900913C810022
:1042900000EE80000000400080087800B03C810003
:1042A000017D200001087800D764070070C1B300C9
:1042B00020479800400E3700903C810010007800A5
:1042C0000000E00032003A009078220010407800B0
:1042D0008080FB0060612200104078000080FB00BD
:1042E0000000E900808F500023003A00D5640700E9
:1042F0008000EB00BCF607000004BE0090782200AE
:10430000104078008080FB00400520008088B900C4
:10431000E10320008080400000F021000080400088
:10432000100078008000EB00AFF60700A29929008A
:1043300093F523005AF707001AC0B3000001BE002E
:104340000800BE0067F607000000E00001003C0026
:104350000045EB000A04E00007003200A0782200CC
:10436000104078000080FB007030890010C3B3005B
:10437000204798000600370090C1B300F7470700B8
:10438000A07822008040EB00014878000D0E370035
:10439000B03C8100100078000000E00060003A00AE
:1043A000B03C8100813E2000010878009D64070038
:1043B000803D89009F640700903D8900803D810019
:1043C0000000E00019003200903D81000000E00094
:1043D00016003200903D81008000D100803D8100B8
:1043E000808F500011003E00903D81000000400091
:1043F00080007800803D8100808F50000B003900E4
:10440000803D81008000D100903D8100808F500070
:1044100006003E00803D81000000400080007800E2
:10442000903D8100808F500037003100907822004D
:10443000104078008080FB0060612200104078000E
:104440000080FB000000E900808F500024003A004B
:104450007C6407008000EB0063F607000004BE00E8
:1044600090782200104078008080FB0040052000FA
:104470008088B900E10320008080400000F0210026
:1044800000804000100078008000EB0056F6070026
:10449000A299290093F5230001F707001AC0B30081
:1044A0000001BE000800BE000EF607000000E0009C
:1044B00001003C000045EB000A04E0000800320067
:1044C000A0782200104078000080FB007030890046
:1044D00010C3B3002047980000000000B60D37005D
:1044E000A0C1B3009D470700A078220010407800CB
:1044F0000080FB0060308900A07822008040EB0043
:1045000001487800AF0D37000000EB00803D8900C6
:104510000000EB00903D89003B640700A60D3700CA
:10452000A078220010407800F74F50001A003A009F
:10453000F0AF2100104078000004E0000B003A00CA
:1045400040640700B13D8100810F5000670D3900C4
:10455000C0ED210011C0B30001487800C02607005B
:1045600080C1B30020479800930D370035640700E1
:10457000B13D8100810F50005E0D3E00C0ED210075
:1045800011C0B30001487800B526070080C1B30010
:1045900020479800880D3700A7260700E14F5000FC
:1045A000560D3A0027640700000F7800F0AF210095
:1045B000104078000004E00032003A0090782200B9
:1045C000104078008080FB00400520008088B90002
:1045D000010420008080400000F0210000804000A5
:1045E000100078009E0F5000460D3E00E08522002E
:1045F00010407800E34F500005003A000041EB0006
:10460000E179220040E22100E82907000D0037008F
:1046100070B0210010407800E34F500005003A00D0
:104620000041EB00E179220040E22100DF29070090
:104630000400370022C3B300E179220040E22100E8
:10464000DA290700F287470072805700E1792200DB
:1046500008000900311878002001B100B32A0700D2
:10466000F2875700DF260700913C810000EE8000B2
:10467000000040008008780090C1B30020479800F7
:104680004D0D370090782200104078008080FB00AC
:10469000400520008088B90021042000808040006F
:1046A00000F0210000804000100078009E0F5000B4
:1046B000160D3900E085220010407800E34F5000CD
:1046C00005003A000041EB00E179220020EA2100D8
:1046D000B62907000D00370070B0210010407800A7
:1046E000E34F500005003A000041EB00E179220061
:1046F00020EA2100AD2907000400370022C3B300DF
:10470000E179220020EA2100A8290700F28747006A
:1047100072805700E2792200080009003218780000
:104720002001B100812A0700F2875700AD2607005B
:10473000913C810000EE800000004000800878007D
:1047400090C1B300204798001B0D3700903C8100BA
:10475000100078000000E00006003A0090C1B300AD
:10476000FE460700A07822008040EB000148780058
:10477000140D370030260700E14F5000E50C3A00D9
:10478000C0ED21008040EB0001487800AD630700D8
:10479000000F7800E085220010407800E34F5000C1
:1047A00085013200F0AF2100104078000004E000E5
:1047B000BE003A0090782200104078008080FB0014
:1047C000400520008088B900FA00400000F0210078
:1047D00000804000100078000000E00020003A0057
:1047E00090782200104078008080FB004005200077
:1047F0008088B900E10320008080400000F02100A3
:1048000000804000100078009E0F50007C003E00A9
:1048100090782200104078000081FB009078220000
:10482000104078008080FB00400520008088B9009F
:10483000E10320008080400000F021000080400063
:10484000100078009E001000400520008091B90003
:10485000A0F1210000004100010878006800370045
:1048600090782200104078008080FB0040052000F6
:104870008088B900E10320008080400000F0210022
:1048800000804000100078009E0F50001E003E0087
:1048900090782200104078000081FB009078220080
:1048A000104078008080FB00400520008088B9001F
:1048B000FA00400000F021000080400090007800E5
:1048C00090782200104078008081FB004005200095
:1048D0008098B900E30320008081410000F02100AE
:1048E00000804100100078001E0010008080400011
:1048F000400520008091B900A0F121000000410096
:10490000010878003E0037009078220010407800BF
:104910008080FB00400520008088B900FA0040003C
:1049200000F0210000804000900078009078220084
:10493000104078000081FB00400520008090B90005
:10494000E20320000001410000F0210000004100CE
:10495000100078001E005000808F50001E003900AB
:1049600090782200104078000081FB0090782200AF
:10497000104078008080FB00400520008088B9004E
:10498000FA00400000F02100008040009000780014
:1049900090782200104078008081FB0040052000C4
:1049A0008098B900E30320008081410000F02100DD
:1049B00000804100100078001E0010008080400040
:1049C000400520008091B900A0F1210000004100C5
:1049D000010878000A003700907822001040780023
:1049E0008080FB00400520008088B90080007800AE
:1049F000A0F12100008040008000EB000108780059
:104A000090782200104078000081FB00907822000E
:104A1000104078008080FB00400520008088B900AD
:104A2000E10320008080400000F021000080400071
:104A30009000780090782200104078008081FB0080
:104A4000400520008098B900FA01400000F02100E4
:104A50000080410010007800808050009078220093
:104A6000104078008081FB00400520008098B9004C
:104A7000F201400000F021000080410010007800A9
:104A80008080500070EC2100104078000080FB0016
:104A900080805000400520008091B900A0F42100E2
:104AA0000000410001087800C30037009078220020
:104AB000104078008080FB00400520008088B9000D
:104AC000210320008080400000F021000080400091
:104AD000100078000000E00020003A0090782200EA
:104AE000104078008080FB00400520008088B900DD
:104AF000E10320008080400000F0210000804000A1
:104B0000100078009E0F50007F003900907822003E
:104B1000104078000081FB0090782200104078005F
:104B20008080FB00400520008088B900E103200060
:104B30008080400000F021000080400010007800DC
:104B40009E005000400520008091B90020F3210014
:104B500000004100010878006B00370090782200C7
:104B6000104078008080FB00400520008088B9005C
:104B7000E10320008080400000F021000080400020
:104B8000100078009E0F50001F003900907822001E
:104B9000104078000081FB009078220010407800DF
:104BA0008080FB00400520008088B90021032000A0
:104BB0008080400000F021000080400090007800DC
:104BC00090782200104078008081FB004005200092
:104BD0008098B900E30320008081410000F02100AB
:104BE00000804100100078001E00500080804000CE
:104BF000400520008091B90020F321000000410011
:104C000001087800400037009078220010407800BA
:104C10008080FB00400520008088B900210320002F
:104C20008080400000F0210000804000900078006B
:104C300090782200104078000081FB0040052000A1
:104C40008090B900E20320000001410000F0210043
:104C500000004100100078001E001000808F5000FE
:104C60001F00390090782200104078000081FB007E
:104C700090782200104078008080FB0040052000E2
:104C80008088B900210320008080400000F02100CE
:104C9000008040009000780090782200104078005A
:104CA0008081FB00400520008098B900E3032000CC
:104CB0008081410000F02100008041001000780058
:104CC0001E00500080804000400520008091B90007
:104CD00020F3210000004100010878000A0037009D
:104CE00090782200104078008080FB004005200072
:104CF0008088B9008000780020F321000080400007
:104D00008000EB00010878009078220010407800C5
:104D10000081FB0090782200104078008080FB002A
:104D2000400520008088B900E10320008080400019
:104D300000F0210000804000900078009078220070
:104D4000104078008081FB00400520008098B90069
:104D5000230320008081410000F0210000804100F9
:104D60001000780080804000907822001040780089
:104D70008081FB00400520008098B900A30220003C
:104D80008081410000F02100008041001000780087
:104D90008080400070EC2100104078000080FB0013
:104DA00080804000400520008091B90020F521005E
:104DB0000000410001087800E085220010407800E2
:104DC000E34F500042003600D03C81000000E80074
:104DD000D03C8900103C8100213C810061004000F2
:104DE000E0804800103C8900213C8900B03C8100F3
:104DF00091782200914078000181FB00410520005C
:104E00008191B90082007800C203200001014100B5
:104E100001F0210081004100910078000108780034
:104E2000A07B220010407800E14F500014003A00AF
:104E300090782200104078008080FB0060612200A2
:104E4000104078000080FB000000E900808F5000D7
:104E50000B003A0000782200104078008040E80003
:104E60000078220001487800A07B22008040EB00FF
:104E700001487800B0C2B300204798001300370003
:104E8000E085220010407800E54F50000C003A0009
:104E900090782200104078008080FB006061220042
:104EA000104078000080FB000000E900808F500077
:104EB00003003A00B0C2B300204798000300370057
:104EC00040C3B300204798003B0B37003A0B370034
:104ED000E085220010407800E34F50000F0B3A00AD
:104EE0000000EB00A03D8900B03C8100C1DA200049
:104EF00001087800B0C1B300204798002E0B37009E
:104F0000B03C8100100078000000E00024003A006E
:104F1000A03D8100E10F50000F003A009078220080
:104F2000104078000084FB00C661070041052000A6
:104F300081C1B900E1F321008100410080087800BF
:104F400005F507000000EB00A03D8900907B2200E2
:104F500011C0B3000148780090782200104078001A
:104F60008080FB0060612200104078000080FB0020
:104F70000000E900808F500003003A00B0C2B30087
:104F8000204798000C0B3700B03C8100813E200088
:104F90000108780050C0B30020479800060B370086
:104FA00020802200104078000004E000DD0A32007A
:104FB000B03C8100C1DA2000010878001000200018
:104FC000A03D8900FC0A3700B07B22001040780029
:104FD0000004E0001A003A00A03C810010007800B4
:104FE0000000E00006003A00D0C0B300DB44070038
:104FF000A07822008040EB0001487800F10A3700D9
:10500000E0812200104078000004E00031003A0006
:10501000608122008040EB00014878000000EB0036
:10502000D0408900B07B220011C0B3000148780055
:10503000A03C810011EE80000108780025003700B7
:10504000B07B220010407800E14F50000D003A0084
:10505000A03C8100100078000000E0001D003A0034
:10506000608122008040EB00014878000000EB00E6
:10507000D0408900B07B220021C0B30001487800F5
:10508000140037006081220010407800E14F50008A
:1050900010003A00608122008040EB000148780057
:1050A000C0408100EA0F50000A003600C140810074
:1050B00070252000808F500006003E00B0C0B30075
:1050C000A6440700A07822008040EB000148780049
:1050D000BC0A3700B07B2200104078000004E000DA
:1050E0000A003200D140810080252000808F5000CE
:1050F00006003600D0C0B30098440700A078220014
:105100008040EB0001487800AE0A3700A07822000A
:1051100010407800E94F500001013A00C623070013
:10512000E14F5000810A3A00207D220010407800B3
:105130000004E00007003A00903C81001000780075
:10514000703C8900613C8100703C8100008F500000
:1051500009003700F0AF2100104078000004E000A3
:1051600003003A002F610700000F780002003700AB
:1051700030610700000F7800E085220010407800C1
:10518000E64F500058003200F0AF21001040780088
:105190000004E0002A003A00E08522001040780078
:1051A000E34F50000A003A00907822001040780047
:1051B0008080FB00400520008088B90080007800D6
:1051C000C0F02100008040001E0878005D0037001C
:1051D000E085220010407800E44F50000A003A00B9
:1051E00090782200104078008080FB00400520006D
:1051F0008088B90080007800E0F021000080400045
:105200001E0878004F003700E0852200104078002B
:10521000E54F50004B003A00907822001040780093
:105220008080FB00400520008088B9008000780065
:1052300000F12100008040001E0878004100370086
:10524000E085220010407800E34F50000A003A0049
:1052500090782200104078008080FB0040052000FC
:105260008088B9008000780040F221000080400072
:105270001E08780033003700E085220010407800D7
:10528000E44F50000A003A00907822001040780065
:105290008080FB00400520008088B90080007800F5
:1052A00060F22100008040001E08780025003700D1
:1052B000E085220010407800E54F500021003A00C0
:1052C00090782200104078008080FB00400520008C
:1052D0008088B9008000780080F2210000804000C2
:1052E0001E08780017003700F0AF2100104078004A
:1052F0000004E0000A003A00907822001040780094
:105300008080FB00400520008088B9008000780084
:1053100020F12100008040001E08780009003700BD
:1053200090782200104078008080FB00400520002B
:105330008088B90080007800A0F221000080400041
:105340001E087800207D2200104078000004E00054
:105350001C003A00F0AF2100104078000004E0008B
:105360000B003A00B03C8100917822009140780017
:105370000181FB00410520008191B90001F021006D
:10538000810041009100780001087800300037006A
:10539000B03C810091782200914078000181FB00AF
:1053A000410520008191B900820078000181E80068
:1053B00001F021008100410091007800010878008F
:1053C00023003700E085220010407800E34F5000B2
:1053D0001C003A00F0AF2100104078000004E0000B
:1053E0000B003A00B03C8100917822009140780097
:1053F0000181FB00410520008191B90001F02100ED
:105400008100410091007800010878001000370009
:10541000B03C810091782200914078000181FB002E
:10542000410520008191B900820078000181E800E7
:1054300001F021008100410091007800010878000E
:1054400003003700B03C810001EE800001087800C5
:10545000A0C0B3002047980060B021001040780041
:10546000E34F5000B3093A00E07722001040780083
:10547000E14F5000B1093A00F0AF21001040780030
:105480000004E00013003A00B83C8100907822004C
:10549000104078008080FB00400520008088B90023
:1054A0008000780000F021000080400010007800AB
:1054B0008000EB004CF207003233230033F323006B
:1054C000F7F207002AF2070000007800000C7800CD
:1054D000B9093700B83C810090782200104078006C
:1054E0008080FB00400520008088B9008080E800B3
:1054F00000F0210000804000100078008000EB00E8
:1055000039F207003233230033F32300E4F20700BB
:1055100017F2070000007800000C7800A609370099
:10552000A078220010407800EA4F500085093A0028
:1055300060B0210010407800E34F500010003A00A6
:10554000E077220010407800E14F50000C003A0054
:10555000B03C8100100078000000E00007003A0035
:10556000E07722008040EB0001487800A07822001C
:1055700061C0B3000148780092093700610137002B
:10558000207D2200104078000004E0002D003A0049
:10559000B03C8100100078000000E0006B093A0088
:1055A000D140810080252000808F50000600360009
:1055B000D0C0B30069430700A07822008040EB0010
:1055C000014878007F093700903C810001EE80009F
:1055D00001087800903C810010007800603C890050
:1055E000F0AF2100104078000004E00009003A000C
:1055F000F287470072805700E3DE210008000900AF
:10560000331878002001B100C8260700F287570040
:1056100008003700F287470072805700C4E6210077
:1056200008000900341878002001B100BF260700E7
:10563000F2875700EB220700B0C0B3002047980064
:105640005D093700E085220010407800E34F5000EC
:1056500074003A00B03C8100100078000000E000C7
:105660003C093A00EF5F0700803D8900F15F0700C9
:10567000903D8900803D81000000E000190032006B
:10568000903D81000000E00016003200903D810056
:105690008000D100803D8100808F500011003E00CD
:1056A000903D81000000400080007800803D810036
:1056B000808F50000B003900803D81008000D100B8
:1056C000903D8100808F500006003E00803D8100AB
:1056D0000000400080007800903D8100808F5000E5
:1056E0000A003100A0C1B3001C430700A0782200CB
:1056F000104078000080FB0060308900A078220014
:105700008040EB00014878002E093700F0AF2100FF
:10571000104078000004E00003003A00813D810061
:10572000010F780002003700923D8100020F7800DF
:10573000F0AF2100104078000004E0001B003A00A8
:1057400090782200104078008080FB004005200007
:105750008088B9008000780040F42100008040007B
:105760001E08780090782200104078008080FB00AE
:10577000400520008088B90080007800A0F4210056
:10578000008040001E087800F287470072805700B2
:10579000E3DE210008000900331878002001B10081
:1057A00062260700F28757001A003700907822001F
:1057B000104078008080FB00400520008088B90000
:1057C00080007800C0F42100008040001E087800AE
:1057D00090782200104078008080FB004005200077
:1057E0008088B9008000780020F52100008040000A
:1057F0001E087800F287470072805700C4E6210037
:1058000008000900341878002001B100472607007D
:10581000F287570073220700B0C0B30020479800FA
:10582000E5083700F0AF2100104078000004E000E8
:1058300003003A007B5F0700000F7800020037008A
:105840007C5F0700000F7800F0AF21001040780067
:105850000004E0000C003A0090782200104078002C
:105860008080FB00400520008088B900A104200052
:105870008080400000F0210000804000100078008F
:105880009E0F500010003600F0AF2100104078004D
:10589000E14F50008D003A009078220010407800CF
:1058A0008080FB00400520008088B9002105200091
:1058B0008080400000F0210000804000100078004F
:1058C0009E0F500081003E00F0AF21001040780094
:1058D0000004E00016003A00E08522001040780045
:1058E000E44F500012003A009078220010407800F7
:1058F0000081FB0090782200104078008080FB003F
:10590000400520008088B900A1042000808040006C
:1059100000F0210000804000900078004005200049
:105920008091B90060F42100000041000108780076
:10593000F0AF2100104078000004E00016003A00AB
:10594000E085220010407800E54F500012003A0038
:1059500090782200104078000081FB0090782200AF
:10596000104078008080FB00400520008088B9004E
:10597000A10420008080400000F021000080400051
:1059800090007800400520008091B90080F421004B
:105990000000410001087800F0AF210010407800BD
:1059A000E14F500016003A00E085220010407800D8
:1059B000E44F500012003A00907822001040780026
:1059C0000081FB0090782200104078008080FB006E
:1059D000400520008088B90021052000808040001B
:1059E00000F0210000804000900078004005200079
:1059F0008091B900E0F42100000041000108780026
:105A0000F0AF210010407800E14F500016003A003E
:105A1000E085220010407800E54F500012003A0067
:105A200090782200104078000081FB0090782200DE
:105A3000104078008080FB00400520008088B9007D
:105A4000210520008080400000F0210000804000FF
:105A500090007800400520008091B90000F52100F9
:105A60000000410001087800F0AF210010407800EC
:105A70000004E00009003A00F287470072805700F6
:105A8000E1DE210008000900311878002001B10092
:105A9000A6250700F287570008003700F287470065
:105AA00072805700C2E62100080009003218780011
:105AB0002001B1009D250700F2875700C92107008A
:105AC000B0C0B300204798000E003700B03C810002
:105AD000100078000000E00020083A00A0C1B300E8
:105AE0001E420700A0782200104078000080FB00D2
:105AF00060308900A07822008040EB0001487800E7
:105B0000300837002C083700D0408100EA0F5000E1
:105B1000C5003600207D2200104078000004E0001F
:105B20005F003A00E085220010407800E64F500008
:105B300004003200E085220010407800E34F50005E
:105B40003D003A00F0AF2100104078000004E00072
:105B50001D003A0090782200104078008080FB0001
:105B6000400520008088B9008000780000F0210006
:105B700000804000100F78009E0078004006200052
:105B800080017800110009008380D800000F7800A0
:105B90009E007800000520008088B900000F780082
:105BA00090782200104078008080FB0040052000A3
:105BB0008088B9008000780000F02100008040005B
:105BC0001E0878001C0037009078220010407800F2
:105BD0008080FB00400520008088B9008080E800BC
:105BE00000F0210000804000100F78009E00780037
:105BF0004006200000027800110009008480D800CF
:105C0000000F78009E007800000520008088B90011
:105C1000000F780090782200104078008080FB0010
:105C2000400520008088B9008000780020F0210025
:105C3000008040001E087800F0AF2100104078007E
:105C40000004E00009003A00F28747007280570024
:105C500021E1210008000900311878002001B1007D
:105C600032250700F287570008003700F287470007
:105C70007280570002E921000800090032187800FC
:105C80002001B10029250700F2875700903C8100D0
:105C900001EE800001087800522107005F00370004
:105CA000F0AF2100104078000004E00023003A002B
:105CB0005C5E0700000F78009078220010407800AA
:105CC0000081FB0090782200104078008080FB006B
:105CD000400520008088B900A10420008080400099
:105CE00000F02100008040009000780070EC21005E
:105CF000104078000080FB008080500040052000AC
:105D00008091B900A0F42100000041000108780052
:105D100060D8800071D880000200200003002400B9
:105D2000ACEF070012F007008000780060EC210063
:105D300010407800FB200700220037003D5E07007E
:105D4000000F780090782200104078000081FB005E
:105D500090782200104078008080FB0040052000F1
:105D60008088B900210520008080400000F02100DB
:105D7000008040009000780070EC21001040780016
:105D80000080FB0080805000400520008091B90019
:105D900020F52100000041000108780060D8800053
:105DA00071D88000020020000300240089EF070062
:105DB000EFEF07008000780060EC210010407800D1
:105DC000F02007000000EB00A03D89009E01780054
:105DD000B33D890090782200104078008080FB005D
:105DE000400520008088B900E10320008080400049
:105DF00000F021000080400090007800300020007A
:105E000000027800110009008480D800803D8900DC
:105E1000903C81004106200001087800E0C0B300FA
:105E20002047980062003700207D22001040780053
:105E30000004E0005E003200E0852200104078009F
:105E4000E34F50005A003200807B2200104078005F
:105E50000004E00056003A00F0AF21001040780046
:105E60000004E00003003A00EE5D0700000F780038
:105E700002003700EF5D0700000F7800F0AF21004F
:105E8000104078000004E00023003A0090782200DF
:105E9000104078008080FB00400520008088B90019
:105EA000010420008080400000F0210000804000BC
:105EB000100078009E00500070EC21001040780027
:105EC0000080FB00808F500039003E00807B220064
:105ED00011C0B300014878000041EB00E1792200D5
:105EE00000E02100DF230700BE200700C0C0B30090
:105EF00020479800903C810001EE80000108780066
:105F0000903C810010007800603C89009E00780081
:105F1000B13D890026003700F0AF21001040780025
:105F2000E14F500022003A009078220010407800A3
:105F30008080FB00400520008088B90021042000FB
:105F40008080400000F021000080400010007800B8
:105F50009E00500070EC2100104078000080FB0093
:105F6000808F500012003E00807B220011C0B300E1
:105F7000014878000041EB00E1792200E0E72100D0
:105F8000B823070097200700C0C0B300204798003F
:105F9000903C810001EE800001087800903C810077
:105FA00010007800603C89001E017800B23D890035
:105FB00021200700E14F5000EA063A00A0782200B5
:105FC00010407800EB4F500019003A00F0AF21006C
:105FD000104078000004E00009003A00F287470012
:105FE0007280570003E02100080009003318780090
:105FF0002001B1004D240700F28757000800370048
:10600000F287470072805700E4E72100080009008A
:10601000341878002001B10044240700F2875700AB
:1060200070200700C0C0B30020479800E206370088
:10603000A078220010407800EC4F5000CB063A00C8
:10604000207D2200104078000004E00005003A00A6
:10605000613C8100903C810010007800008F50006E
:1060600024003700F0AF2100104078000004E00069
:1060700003003A006B5D0700000F78000200370054
:106080006C5D0700000F78009E007800B13D89002C
:10609000F0AF2100104078000004E0000B003A004F
:1060A00060D8800071D88000020020000300240026
:1060B000C8EE07002EEF07008000780060EC21009A
:1060C00010407800172007000A00370060D88000D1
:1060D00071D880000200200003002400BDEE0700FC
:1060E00023EF07008000780060EC2100104078006A
:1060F00024200700E085220010407800E34F500084
:1061000008003200E085220010407800E44F500083
:1061100004003200E085220010407800E54F500076
:1061200054003A00F0AF2100104078000004E00075
:1061300028003A00E085220010407800E34F50002C
:1061400009003A0090782200104078008080FB001F
:10615000400520008088B9008000780040F12100CF
:10616000008040001E087800E08522001040780082
:10617000E44F500009003A00907822001040780067
:106180008080FB00400520008088B90080007800F6
:1061900060F12100008040001E087800E0852200A8
:1061A00010407800E54F50004A003A0090782200F5
:1061B000104078008080FB00400520008088B900F6
:1061C0008000780080F12100008040001E087800E7
:1061D00043003700E085220010407800E34F500074
:1061E00009003A0090782200104078008080FB007F
:1061F000400520008088B90080007800C0F22100AE
:10620000008040001E087800E085220010407800E1
:10621000E44F500009003A009078220010407800C6
:106220008080FB00400520008088B9008000780055
:10623000E0F22100008040001E087800E085220086
:1062400010407800E54F500024003A00907822007A
:10625000104078008080FB00400520008088B90055
:106260008000780000F32100008040001E087800C4
:106270001B003700F0AF2100104078000004E00060
:106280000A003A0090782200104078008080FB00DD
:10629000400520008088B90080007800A0F121002E
:1062A000008040001E0878000D0037009078220022
:1062B000104078008080FB00400520008088B900F5
:1062C0008000780020F32100008040001E08780044
:1062D000030037000000000001003700000000004C
:1062E000207D2200104078000004E0000D00320004
:1062F000E085220010407800E34F500005003A008E
:10630000913C810000EE8000000040008008780091
:1063100007003700903C810001EE80000108780002
:1063200003003700903C810001EE800001087800F6
:10633000903C810010007800603C8900D0C0B30020
:10634000204798001C063700903C81001000780020
:106350000000E00006003A0060C1B300FF3F070004
:10636000A07822008040EB00014878001506370035
:10637000D0408100EA0F5000FE053600207D22004B
:1063800010407800E14F500027013A00A55C07005B
:10639000803D8900A75C0700903D8900903D810009
:1063A0008000D100803D8100808F500011003E00B0
:1063B000903D81000000400080007800803D810019
:1063C000808F50000B003900803D81008000D1009B
:1063D000903D8100808F500006003E00803D81008E
:1063E0000000400080007800903D8100808F5000C8
:1063F0000A003100A0C1B300D83F0700A0782200F6
:10640000104078000080FB0060308900A0782200F6
:106410008040EB0001487800EA053700F0AF21002A
:10642000104078000004E00003003A00823D810043
:10643000020F780002003700933D8100030F7800BF
:10644000E085220010407800E34F500017003A002A
:10645000F0AF2100104078000004E0000A003A008C
:1064600090782200104078008080FB0040052000DA
:106470008088B9008000780000F42100008040008E
:106480001E0878000900370090782200104078003C
:106490008080FB00400520008088B90080007800E3
:1064A00020F42100008040001E087800B03D8100EB
:1064B0001E0F1000545C0700F0AF21001040780060
:1064C0000004E0006C003A00E085220010407800F3
:1064D000E34F50000A003A00907822001040780004
:1064E0008080FB00400520008088B9008000780093
:1064F00040F02100008040001E087800290037008D
:10650000E085220010407800E44F50000A003A0075
:1065100090782200104078008080FB004005200029
:106520008088B9008000780060F021000080400081
:106530001E0878001B003700E0852200104078001C
:10654000E54F50000A003A00907822001040780091
:106550008080FB00400520008088B9008000780022
:1065600080F02100008040001E0878000D003700F8
:10657000E085220010407800E64F500009003A0004
:1065800090782200104078008080FB0040052000B9
:106590008088B90080007800A0F0210000804000D1
:1065A0001E08780070EC2100104078000080FB008D
:1065B0009E0F5000180031009078220010407800A3
:1065C0000081FB0090782200104078008080FB0062
:1065D000400520008088B900A10420008080400090
:1065E00000F02100008040009000780070EC210055
:1065F000104078000080FB001E00100080804000EA
:10660000400520008091B900A0F421000000410065
:1066100001087800FC0337009078220010407800D1
:106620000081FB0090782200104078008080FB0001
:10663000400520008088B900A1042000808040002F
:1066400000F02100008040009000780070EC2100F4
:10665000104078000080FB001E0010008080400089
:10666000400520008091B900A0F421000000410005
:1066700001087800E4033700E0852200104078002C
:10668000E34F50000A003A00907822001040780052
:106690008080FB00400520008088B90080007800E1
:1066A000C0F12100008040001E087800290037005A
:1066B000E085220010407800E44F50000A003A00C4
:1066C00090782200104078008080FB004005200078
:1066D0008088B90080007800E0F12100008040004F
:1066E0001E0878001B003700E0852200104078006B
:1066F000E54F50000A003A009078220010407800E0
:106700008080FB00400520008088B9008000780070
:1067100000F22100008040001E0878000D003700C4
:10672000E085220010407800E64F500009003A0052
:1067300090782200104078008080FB004005200007
:106740008088B9008000780020F22100008040009D
:106750001E08780070EC2100104078000080FB00DB
:106760009E0F5000180031009078220010407800F1
:106770000081FB0090782200104078008080FB00B0
:10678000400520008088B90021052000808040005D
:1067900000F02100008040009000780070EC2100A3
:1067A000104078000080FB001E0010008080400038
:1067B000400520008091B90020F521000000410033
:1067C000010878009003370090782200104078008C
:1067D0000081FB0090782200104078008080FB0050
:1067E000400520008088B9002105200080804000FD
:1067F00000F02100008040009000780070EC210043
:10680000104078000080FB001E00100080804000D7
:10681000400520008091B90020F5210000004100D2
:106820000108780078033700903C81001000780060
:10683000703C8900613C8100703C8100008F5000F9
:10684000E085220010407800E34F5000080032003D
:10685000E085220010407800E44F50000400320030
:10686000E085220010407800E54F5000A0023A0079
:10687000F0AF2100104078000004E0004E013A0023
:10688000E085220010407800E34F500043003A00BA
:1068900090782200104078008080FB0040052000A6
:1068A0008088B9008000780040F02100008040001E
:1068B0001E087800401F20009E007800808F500046
:1068C0000F00360090782200104078000081FB0015
:1068D0009E0078006000200000027800110009008E
:1068E0008480D80080007800400520008091B900A5
:1068F00040F3210000004100010878000A00370041
:1069000090782200104078008080FB004005200035
:106910008088B9008000780040F3210000804000AA
:106920008000EB0001087800907822001040780089
:106930000081FB0090782200104078008080FB00EE
:10694000400520008088B9008000780000F0210018
:10695000008040009000780090782200104078007D
:106960008081FB00400520008098B900430320008F
:106970008081410000F0210000804100100078007B
:1069800080804000400520008091B90000F0210087
:1069900000004100010878001B033700E085220059
:1069A00010407800E44F5000F5003A009078220043
:1069B000104078008080FB00400520008088B900EE
:1069C0008000780060F02100008040001E08780000
:1069D00090782200104078008080FB004005200065
:1069E0008088B900410320008080400000F0210031
:1069F00000804000100078000000E0000B003A002A
:106A000090782200104078008080FB004005200034
:106A10008088B9008000780060F321000080400089
:106A20008000EB0001087800F7023700401F2000CB
:106A30009E007800808F500066003600907822001B
:106A4000104078008080FB00400520008088B9005D
:106A5000410320008080400000F0210000804000C1
:106A6000100078008000EB00400798005107980064
:106A700090782200104078008080FB0040052000C4
:106A80008088B900E600400000F02100008040004E
:106A900010007800401FB1008000EB005E01900004
:106AA0008091B900CE019000819AB90084017800EC
:106AB00003014100CE0190000018B800010141001F
:106AC000820078004007980051079800400798001E
:106AD0005107980090782200104078008080FB00D9
:106AE000400520008088B900E400400000F021004B
:106AF00000804000900078009078220010407800DC
:106B00000081FB00400520008090B9006601400034
:106B100000F02100000041001000780000805000CB
:106B20008000EB000001BE004E009000DE009000EF
:106B30008FED0700400798005107980090782200D9
:106B4000104078000081FB00CE009000400520003E
:106B50008091B90060F32100000041000108780035
:106B600090782200104078000081FB00907822008D
:106B7000104078008080FB00400520008088B9002C
:106B80008000780000F02100008040009000780034
:106B900090782200104078008081FB0040052000A2
:106BA0008098B900630320008081410000F021003B
:106BB00000804100100078008080400040052000E7
:106BC0008091B90000F02100000041000108780028
:106BD0008D023700301F20009E007800808F50000B
:106BE00082023E0090782200104078008080FB00F6
:106BF000400520008088B9004103200080804000CB
:106C000000F0210000804000100078008000EB00C0
:106C100040079800510798009078220010407800B3
:106C20008080FB00400520008088B900E60040001D
:106C300000F021000080400010007800411F20007B
:106C4000008050008000EB005E0190008091B90050
:106C5000CE019000819AB9008401780003014100BF
:106C6000CE0190000018B8000101410082007800B8
:106C70004007980051079800400798005107980076
:106C800090782200104078008080FB0040052000B2
:106C90008088B900E400400000F02100008040003E
:106CA0009000780090782200104078000081FB006E
:106CB000400520008090B9006601400000F02100EE
:106CC0000000410010007800008050008000EB00C0
:106CD0000001BE004E009000DE00900024ED070091
:106CE00040079800510798009078220010407800E3
:106CF0000081FB00CE009000400520008091B9008B
:106D000060F3210000004100010878009078220023
:106D1000104078000081FB0090782200104078003D
:106D20008080FB00400520008088B900800078004A
:106D300000F0210000804000900078009078220050
:106D4000104078008081FB00400520008098B90049
:106D5000630320008081410000F021000080410099
:106D60001000780080805000400520008091B9001C
:106D700000F02100000041000108780022023700E5
:106D8000E085220010407800E54F500019023A00DB
:106D900090782200104078008080FB0040052000A1
:106DA0008088B9008000780080F0210000804000D9
:106DB0001E08780014023700E08522001040780099
:106DC000E34F500043003A009078220010407800D2
:106DD0008080FB00400520008088B900800078009A
:106DE000C0F12100008040001E087800401F2000F4
:106DF0009E007800808F50000F00360090782200AF
:106E0000104078000081FB009E00780060002000A8
:106E100080017800110009008380D800800078008C
:106E2000400520008091B90080F32100000041005E
:106E3000010878000A00370090782200104078009E
:106E40008080FB00400520008088B9008000780029
:106E500080F32100008040008000EB0001087800F2
:106E600090782200104078000081FB00907822008A
:106E7000104078008080FB00400520008088B90029
:106E80008080E80000F02100008040009000780041
:106E900090782200104078008081FB00400520009F
:106EA0008098B900830320008081410000F0210018
:106EB00000804100100078008080400040052000E4
:106EC0008091B90020F02100000041000108780005
:106ED000CD013700E085220010407800E44F5000DB
:106EE000F5003A0090782200104078008080FB0086
:106EF000400520008088B90080007800E0F1210082
:106F0000008040001E087800907822001040780031
:106F10008080FB00400520008088B90081032000AC
:106F20008080400000F021000080400010007800C8
:106F30000000E0000B003A0090782200104078003A
:106F40008080FB00400520008088B9008000780028
:106F5000A0F32100008040008000EB0001087800D1
:106F6000A9013700401F20009E007800808F50004C
:106F70006600360090782200104078008080FB0088
:106F8000400520008088B9008103200080804000F7
:106F900000F0210000804000100078008000EB002D
:106FA0004007980051079800907822001040780020
:106FB0008080FB00400520008088B900FE00400072
:106FC00000F021000080400010007800401FB10058
:106FD0008000EB005E0190008091B900CE0190002E
:106FE000819AB9008401780003014100CE0190002C
:106FF0000018B800010141008200780040079800A5
:107000005107980040079800510798009078220097
:10701000104078008080FB00400520008088B90087
:10702000FC00400000F0210000804000900078004B
:1070300090782200104078000081FB00400520007D
:107040008090B9007E01400000F021000000410066
:1070500010007800008050008000EB000001BE00AE
:107060004E009000DE00900041EC070040079800C1
:107070005107980090782200104078000081FB00B2
:10708000CE009000400520008091B900A0F32100BF
:10709000000041000108780090782200104078003C
:1070A0000081FB0090782200104078008080FB0077
:1070B000400520008088B9008080E80000F02100B1
:1070C0000080400090007800907822001040780006
:1070D0008081FB00400520008098B900A3032000B8
:1070E0008081410000F02100008041001000780004
:1070F00080804000400520008091B90020F02100F0
